:100000000C9481000C94A9000C94A9000C94A900F4
:100010000C94A9000C94A9000C94A9000C94A900BC
:100020000C94A9000C94A9000C94A9000C94A900AC
:100030000C94A9000C94A9000C94A9000C94A9009C
:100040000C9447070C94A9000C94E4040C94A900A8
:100050000C94A9000C94A9000C94A9000C94A9007C
:100060000C94A9000C94A9000000000024002700B3
:100070002A0000000000250028002B0000000000DE
:1000800023002600290004040404040404040202DA
:100090000202020203030303030301020408102007
:1000A0004080010204081020010204081020000012
:1000B0000007000201000003040600000000000029
:1000C0000000494E46494E4954594E414ECDCCCC84
:1000D0003D0AD7233C17B7D13877CC2B329595E61C
:1000E000241FB14F0A000020410000C84200401CFC
:1000F0004620BCBE4CCA1B0E5AAEC59D740093046C
:10010000DC0511241FBECFEFD8E0DEBFCDBF11E06C
:10011000A0E0B1E0EEE2F9E102C005900D92A63355
:10012000B107D9F714E0A6E3B1E001C01D92A63FE4
:10013000B107E1F710E0C2E0D1E004C02297FE0170
:100140000E943B09CE3FD107C9F70E94DD040C9401
:10015000950C0C940000FC01EE53FD4F80819181C1
:100160000895CF93DF93EC01C351DF4F8881CD5EBB
:10017000D0408E3419F421E030E032C0CE018B58EB
:100180009F4F60E070E00E943F09C452DD4F6883DA
:1001900079838A839B83CC5DD240FE01E052FD4F80
:1001A000CC57DF4F8881C458D0408083CE018F5414
:1001B0009F4F60E070E00E943F09CF51DD4F6883A0
:1001C00079838A839B83C152D2408881CB5DDD4F86
:1001D00088830E948F072B977983688320E030E023
:1001E000C901DF91CF9108950F931F93CF93DF93B0
:1001F000EC018C010F541F4FF8018081863519F4F2
:1002000021E030E03AC0CE018B589F4F60E070E0B3
:100210000E943F09C153DD4F688379838A839B83A2
:10022000CF5CD240FE01ED52FD4FCC57DF4F8881AD
:10023000C458D0408083CE018D569F4F60E070E05F
:100240000E943F09CC52DD4F688379838A839B8368
:10025000C45DD240FE01E852FD4FCE55DF4F88818C
:100260008083C95CDD4FF801808188830E948F07FD
:100270002C977983688320E030E0C901DF91CF912A
:100280001F910F910895AF92BF92CF92DF92EF929C
:10029000FF920F931F93DF93CF93CDB7DEB766978F
:1002A0000FB6F894DEBF0FBECDBF7C0120EC30E06E
:1002B000E20EF31ED7018C91E0E4FFEFEE0EFF1E7D
:1002C000863519F421E030E0A7C0D701AB58BF4F05
:1002D00093E0A92EB12CAC0EBD1EF50180E090E09C
:1002E00004C020830196118231962D912E32C9F7D8
:1002F000DC01AA58BF4FAE0DBF1D8DE0C82ED12C1A
:10030000CC0EDD1EF60103C08083118231968D91E3
:100310008823D1F7CE0103968E010F5F1F4FB801DE
:100320004AE050E00E949F0A24EC32E0E20EF31E05
:10033000D7016D937C93CE010D96B8014AE050E051
:100340000E949F0AF701729362937F012EE33DEFB3
:10035000E20EF31EF701ED56FF4F80E090E008C07B
:10036000D5012C93019611961C920894A11CB11CE6
:1003700021912E32A9F7FC01EC56FF4FEE0DFF1D27
:1003800007C0D6018C9311961C920894C11CD11CF5
:1003900081918823B1F7CE0103968E010F5F1F4F25
:1003A000B8014AE050E00E949F0AE9ECF2E0EE0E4C
:1003B000FF1ED7016D937C93CE010D96B8014AE0E4
:1003C00050E00E949F0AF701729362937F0129E334
:1003D0003DEFE20EF31EF701EA53FD4F84E890E093
:1003E000E80EF91ED7018C918083EEE1F0E0EE0E6D
:1003F000FF1ED7018C91E9E2F2E0EE0EFF1ED7015D
:100400008C930E948F07E5EFFFEFEE0EFF1ED701E2
:100410006D937C9320E030E0C90166960FB6F894A6
:10042000DEBF0FBECDBFCF91DF911F910F91FF9027
:10043000EF90DF90CF90BF90AF9008950F931F93F0
:10044000CF93DF938C01EB01CB0160E071E00E9460
:10045000EE0B009721F4C8010E94430118C0CE01A1
:1004600066E071E00E94EE0B009721F4C8010E9443
:10047000F4000DC0CE016CE071E00E94EE0B00971D
:1004800019F022E030E004C0C8010E94B1009C01D4
:10049000C901DF91CF911F910F910895BC016A5955
:1004A0007F4F0E941E020895FC016115710519F429
:1004B00021E030E006C0EA51FD4F7183608320E007
:1004C00030E0C90108952F923F924F925F926F9250
:1004D0007F928F929F92AF92BF92CF92DF92EF92D4
:1004E000FF920F931F93DF93CF9300D00F92CDB75E
:1004F000DEB79B838A830E948F07E6EF4E2EEFEFD5
:100500005E2E460E571E0E948F0719822224332426
:1005100010E056EEC52E52E0D52E8A819B81C80E82
:10052000D91E40EC642E42E0742E680E791E3DEC1C
:10053000832E32E0932E880E991E2AEDA22E22E001
:10054000B22EA80EB91ED601ED91FC91A081B18109
:1005500016962D913C911797CF01F9010995F60157
:10056000A081B181893791054CF0ED91FC911197F3
:100570000484F585E02DCD01099525C0ED91FC9110
:1005800011970680F781E02DCD010995892BD9F0CF
:10059000F601A081B181ED91FC9111970084F18564
:1005A000E02DCD010995682F8A819B810E945A0315
:1005B000892B49F08A819B810E944C0410E0892B91
:1005C00009F043C003C0112309F43FC0D301ED90EB
:1005D000FC900027F7FC0095102F0E948F07645FA6
:1005E0007140804090406E157F058007910718F498
:1005F000B1E0B98329C0F401E080F1800027F7FC65
:100600000095102F0E948F07645F714080409040DA
:100610006E157F058007910718F42224239414C0D7
:10062000D501ED90FC900027F7FC0095102F0E945B
:100630008F07645F7140804090406E157F05800792
:10064000910710F43324339410E00E948F0764194B
:100650007509615D77401CF021E030E00CC0E98154
:10066000EE2309F470CF222009F46DCF332009F472
:100670006ACF20E030E0C9010F900F900F90CF912A
:10068000DF911F910F91FF90EF90DF90CF90BF907F
:10069000AF909F908F907F906F905F904F903F9022
:1006A0002F900895FC0111821082E254FD4F1182B7
:1006B00010820895FC01A081B181A336B10520F01C
:1006C0001182108212821DC01A161B0614F06432A9
:1006D00049F4AE0FBF1F12966C93808191810196F1
:1006E00091838083808191818430910554F0E80F5B
:1006F000F91F829131968A3221F4128221E030E092
:1007000002C020E030E0C9010895CF92DF92EF925D
:10071000FF920F931F93DF93CF93CDB7DEB72F9741
:100720000FB6F894DEBF0FBECDBF7C0140E050E0B5
:10073000870102541D4F6E010894C11CD11C02C0D8
:100740006F5F7F4FFB0181818C32E1F08A32C1F50E
:1007500019C0F80180819181FC01A4E0EE0FFF1F18
:10076000AA95E1F7E81BF90BEE0DFF1DE20FF31F51
:10077000EA59FF4FD601A20FB31F8C9180832F5FE0
:100780003F4F02C020E030E02417350714F3F80192
:1007900080819181FC0124E0EE0FFF1F2A95E1F793
:1007A000E81BF90BEE0DFF1DE40FF51FEA59FF4F93
:1007B00010820196F8019183808340E050E00AC0E6
:1007C000F601E40FF51F80834F5F5F4FF601E40FE2
:1007D000F51F1082FB0181818A3209F0B1CF81E0DF
:1007E00090E02F960FB6F894DEBF0FBECDBFCF912D
:1007F000DF911F910F91FF90EF90DF90CF900895C0
:10080000BC016E5F7F4F0E9485030895EF92FF92B7
:100810000F931F93DF93CF9300D000D0CDB7DEB7F7
:100820008C01FC01EE24FF2405C0992787FD9095DB
:10083000E826F926838131968A32B9F7D801ED91FD
:10084000FC91E00FF11F8081898381818A83CE0131
:100850000196BE016D5F7F4F40E150E00E949F0A0C
:10086000F8011182108220E030E0E616F70611F060
:1008700021E030E0C9010F900F900F900F90CF91C1
:10088000DF911F910F91FF90EF900895BC016E5F73
:100890007F4F0E9406040895CF93DF93EC010E94DE
:1008A0004604892B39F0C254DD4F19821882CE5B81
:1008B000D2400DC0CE010E940004CE010E944E0223
:1008C000FE01E254FD4F892B39F01182108219820A
:1008D000188221E030E006C011821082198218824D
:1008E00020E030E0C901DF91CF9108950895FC0127
:1008F00080819181892B19F021E030E004C071835F
:10090000608320E030E0C9010895FC01808191817D
:10091000009719F421E030E004C00E943C0720E079
:1009200030E0C901089586E391E00E94520380E21D
:1009300094E00E94760408950F931F9306E311E05C
:10094000C8010E946302C8010E94AB0002E214E0E9
:10095000B8014AE050E00E94F70B80E294E0B80151
:100960000E9485041F910F910895EF92FF920F93BB
:100970001F938DE061E00E94D80708ED14E0C801E4
:1009800040E05BE460E070E00E94150586E391E0E2
:10099000B8010E94540280E2E82E84E0F82EC701DC
:1009A000B8010E947704C70162E171E00E948504EA
:1009B0001F910F91FF90EF9008950E949D070E9454
:1009C000B5040E949C04FDCF1F920F920FB60F92A8
:1009D00011242F933F934F938F939F93EF93FF9304
:1009E0004091C600E091D404F091D50431969F0166
:1009F0002F77307031978091D6049091D7042817C3
:100A0000390739F0EC5AFB4F40833093D5042093DB
:100A1000D404FF91EF919F918F914F913F912F912E
:100A20000F900FBE0F901F901895CF93DF93EC019E
:100A30009A01AB01E885F985203081EE380780E026
:100A4000480780E0580709F445C081E090E00A8833
:100A500002C0880F991F0A94E2F7808360E079E072
:100A60008DE390E00E9417092150304040405040F3
:100A70005695479537952795EC81FD813083EE811A
:100A8000FF812083EA85FB85208141E050E0CA0197
:100A90000E8402C0880F991F0A94E2F7282B208346
:100AA000EA85FB852081CA010F8402C0880F991F47
:100AB0000A94E2F7282B2083EA85FB858081088849
:100AC00002C0440F551F0A94E2F7842B8083DF9104
:100AD000CF910895108220E130E0CECFDC01129654
:100AE000ED91FC911397E058FF4F21913191808156
:100AF0009181281B390B2F773070C9010895DC01D3
:100B00001296ED91FC911397EE57FF4F20813181A2
:100B100092918291E058F0408217930719F42FEFD9
:100B20003FEF05C0E20FF31F8081282F30E0C9019D
:100B30000895DC011296ED91FC911397DF01AE57F9
:100B4000BF4F2D913C911197E058FF4F80819181CB
:100B5000E058F0408217930719F42FEF3FEF0BC0D6
:100B6000E20FF31F80812F5F3F4F2F7730702D935F
:100B70003C93282F30E0C9010895DC011296ED91D5
:100B8000FC911397EE57FF4F80819181929382934E
:100B90000895FC01A085B18521898C9190E0022EF9
:100BA00002C0959587950A94E2F780FFF6CF0484FA
:100BB000F585E02D6083089587E291E09093D90454
:100BC0008093D80484E594E09093DB048093DA0466
:100BD00085EC90E09093DD048093DC0484EC90E05D
:100BE0009093DF048093DE0480EC90E09093E10426
:100BF0008093E00481EC90E09093E3048093E2041E
:100C000086EC90E09093E5048093E40484E0809384
:100C1000E60483E08093E70487E08093E80485E0BE
:100C20008093E90481E08093EA0408950F931F9371
:100C3000CF93DF938C01EB0109C02196D801ED9190
:100C4000FC910190F081E02DC8010995688166232F
:100C5000A1F7DF91CF911F910F910895EF92FF922D
:100C60000F931F93CF93DF938C017B01EA010CC09C
:100C7000D7016D917D01D801ED91FC910190F0813A
:100C8000E02DC80109952197209791F7DF91CF9129
:100C90001F910F91FF90EF900895DC01ED91FC9171
:100CA0000280F381E02D099508952F923F924F9293
:100CB0005F926F927F928F929F92AF92BF92CF92EC
:100CC000DF92EF92FF920F931F93DF93CF93CDB7F5
:100CD000DEB7A0970FB6F894DEBF0FBECDBF1C01E4
:100CE0006A017B01411551056105710549F440E335
:100CF00050E060E070E020E030E00E94EF0656C077
:100D0000882499245401422E55246624772401E036
:100D100010E00C0F1D1F080D191DC701B601A3011E
:100D200092010E941709F80160830894811C911CAC
:100D3000A11CB11CC701B601A30192010E941709B1
:100D4000C901DA016C017D01C114D104E104F1048F
:100D5000F1F681E0E82EF12CEC0EFD1EE80CF91CFA
:100D60003E010894611C711CD501C4010197A109C1
:100D7000B1096C01C818D90816C0F601EE0DFF1DA7
:100D800040814A3010F4405D01C0495C552747FD61
:100D90005095652F752FC10120E030E00E94EF06CD
:100DA0000894E108F1086E147F0439F7A0960FB695
:100DB000F894DEBF0FBECDBFCF91DF911F910F9191
:100DC000FF90EF90DF90CF90BF90AF909F908F906B
:100DD0007F906F905F904F903F902F900895EF928B
:100DE000FF920F931F93CF93DF93EC017A018B0156
:100DF0002115310541F4E881F9810190F081E02D60
:100E0000642F09951BC02A303105B1F477FF10C05B
:100E10004DE250E060E070E020E030E00E94EF063C
:100E200010950095F094E094E11CF11C011D111D3A
:100E3000CE01B801A7012AE00E945506DF91CF91AB
:100E40001F910F91FF90EF9008950F931F938C01C6
:100E50004DE050E060E070E020E030E00E94EF06FE
:100E6000C8014AE050E060E070E020E030E00E941D
:100E7000EF061F910F9108950F931F938C010E940D
:100E80004D06C8010E9425071F910F9108951F92DA
:100E90000F920FB60F9211242F933F938F939F932E
:100EA000AF93BF938091EF049091F004A091F1046F
:100EB000B091F2043091F3040196A11DB11D232FCE
:100EC0002D5F2D3720F02D570196A11DB11D2093C8
:100ED000F3048093EF049093F004A093F104B09393
:100EE000F2048091EB049091EC04A091ED04B09198
:100EF000EE040196A11DB11D8093EB049093EC04C8
:100F0000A093ED04B093EE04BF91AF919F918F91A8
:100F10003F912F910F900FBE0F901F9018958FB794
:100F2000F8942091EF043091F0044091F104509135
:100F3000F2048FBFB901CA010895789484B5826024
:100F400084BD84B5816084BD85B5826085BD85B56D
:100F5000816085BDEEE6F0E0808181608083E1E81C
:100F6000F0E0108280818260808380818160808354
:100F7000E0E8F0E0808181608083E1EBF0E0808157
:100F800084608083E0EBF0E0808181608083EAE729
:100F9000F0E08081846080838081826080838081B2
:100FA000816080838081806880831092C100089571
:100FB000482F50E0CA0186569F4FFC0124914A57A2
:100FC0005F4FFA0184918823C1F0E82FF0E0EE0F23
:100FD000FF1FE859FF4FA591B491662341F49FB7D5
:100FE000F8948C91209582238C939FBF08959FB78E
:100FF000F8948C91822B8C939FBF089540D008F475
:1010000081E00895E89409C097FB3EF4909580959F
:10101000709561957F4F8F4F9F4F9923A9F0F92FBE
:1010200096E9BB279395F695879577956795B7953C
:10103000F111F8CFFAF4BB0F11F460FF1BC06F5F22
:101040007F4F8F4F9F4F16C0882311F096E911C034
:10105000772321F09EE8872F762F05C0662371F055
:1010600096E8862F70E060E02AF09A95660F771F69
:10107000881FDAF7880F9695879597F90895990F45
:101080000008550FAA0BE0E8FEEF16161706E80752
:10109000F907C0F012161306E407F50798F0621B73
:1010A000730B840B950B39F40A2661F0232B242B48
:1010B000252B21F408950A2609F4A140A6958FEF67
:1010C000811D811D089597F99F6780E870E060E0B9
:1010D00008959FEF80EC089500240A9416161706D1
:1010E00018060906089500240A9412161306140619
:1010F00005060895092E0394000C11F4882352F07C
:10110000BB0F40F4BF2B11F460FF04C06F5F7F4F33
:101110008F4F9F4F089557FD9058440F551F59F01A
:101120005F3F71F04795880F97FB991F61F09F3FD4
:1011300079F087950895121613061406551FF2CFFD
:101140004695F1DF08C0161617061806991FF1CF4D
:1011500086957105610508940895E894BB27662774
:101160007727CB0197F908950BD0C4CFB5DF28F0CE
:10117000BADF18F0952309F0A6CFABCF1124EECF3C
:10118000CADFA0F3959FD1F3950F50E0551F629FE2
:10119000F001729FBB27F00DB11D639FAA27F00DD0
:1011A000B11DAA1F649F6627B00DA11D661F829FF7
:1011B0002227B00DA11D621F739FB00DA11D621FDC
:1011C000839FA00D611D221F749F3327A00D611DF9
:1011D000231F849F600D211D822F762F6A2F1124DB
:1011E0009F5750408AF0E1F088234AF0EE0FFF1F2E
:1011F000BB1F661F771F881F91505040A9F79E3F65
:10120000510570F060CFAACF5F3FECF3983EDCF35E
:10121000869577956795B795F795E7959F5FC1F7A1
:10122000FE2B880F911D9695879597F90895A1E259
:101230001A2EAA1BBB1BFD010DC0AA1FBB1FEE1F50
:10124000FF1FA217B307E407F50720F0A21BB30B9B
:10125000E40BF50B661F771F881F991F1A9469F717
:1012600060957095809590959B01AC01BD01CF0173
:101270000895EE0FFF1F0590F491E02D0994A0E072
:10128000B0E0E5E4F9E00C94640CEC015B0161155D
:10129000710519F0FB0191838083F9908F2D90E007
:1012A0000E94CE0B892BC9F7FDE2FF1621F4F990BD
:1012B000EE24E39405C02BE2F21609F4F990EE2433
:1012C0008E0101501040C80162EC70E043E050E034
:1012D0000E94D60B892B01F58E010E5F1F4FC801AE
:1012E00065EC70E045E050E00E94D60B892B19F4C4
:1012F0008E01095F1F4FA114B10419F0F50111838C
:101300000083E0FC04C070E090E080E814C070E06E
:1013100090E080E86FEF08C1C8016AEC70E043E03C
:1013200050E00E94D60B892B69F4A114B10429F472
:1013300070E090E080EC6FE7F7C02296F501D18372
:10134000C083F6CF8824992440E050E060E070E04C
:10135000EF2DE053EA30A0F5F2E0EF2A8E2D90E079
:101360009C0128703070E2FE06C0232B79F50894AA
:10137000811C911C2BC0232B19F008948108910823
:10138000DB01CA0112E0880F991FAA1FBB1F1A9523
:10139000D1F7480F591F6A1F7B1F440F551F661F47
:1013A000771F4E0F511D611D711D483929E95207E4
:1013B00029E9620729E1720748F084E0E82A06C0BB
:1013C000EE3F31F4E3FC39C098E0E92AF990C0CF50
:1013D000E53311F0E53189F529912D3219F4E0E179
:1013E000EE2A05C02B3219F081E090E003C029916C
:1013F00082E090E0E22FE053EA3018F0C81BD90BEE
:101400001CC020E030E0FCE020383F075CF4C9015C
:10141000880F991F880F991F280F391F220F331F1C
:101420002E0F311DE991E053EA3068F3E4FE03C06A
:10143000309521953F4F820E931ECE2CDD24E1FE88
:1014400007C0A114B10421F02197F501D183C08315
:10145000CB01BA010E9402087B018C01F3E0CF228C
:10146000DD2423E0C216D10421F417FB109517F9EF
:10147000109557016801C801B70120E030E040E055
:1014800050E00E94FE07882309F44AC097FE0DC071
:1014900021EEE22E20E0F22E909481949108939414
:1014A000C0E2D0E000E010E012C099EFE92E90E039
:1014B000F92EF6CFF7012591359145915491C6014A
:1014C000B5010E94B4085B016C018C1A9D0A8C1650
:1014D0009D0684F7D595C7950F5F1F4F0630110500
:1014E00029F08CEF9FEFE80EF91EF1CFC501D60170
:1014F0007C018D018C2D880F8D2D881F8F3F51F021
:10150000C601B50120E030E040E050E00E94FE0757
:10151000882331F482E290E09093F5048093F40400
:101520007E2D9F2D802F612F272F392F482F562F4B
:10153000B901CA01CDB7DEB7ECE00C94800C2F9254
:101540003F925F926F927F928F929F92AF92BF92E3
:10155000CF92DF92EF92FF920F931F93CF93DF937F
:101560008C011B01EA016115710519F0FB019183E2
:101570008083209749F0CE010297839728F020E0DE
:1015800030E040E050E0F6C0F801A1908F018A2DD4
:1015900090E00E94CE0B892BB9F7FDE2AF1631F433
:1015A000F801A1908F015524539407C0FBE2AF16B8
:1015B00019F4F801A1908F015524209719F0C0313A
:1015C000D105C1F4F0E3AF1679F4F80180818837D2
:1015D00011F0883549F4F801A1800E5F1F4FF2E049
:1015E0005F2AC0E1D0E006C0209721F480E3A8166E
:1015F000E9F427C0C830D10531F1C930D10524F450
:10160000C230D10531F50CC0CA30D10589F0C031E6
:10161000D105F9F4C12CD12CE12CB8E0FB2E28C067
:10162000C12CD12CE12CA0E4FA2E22C0CAE0D0E0DB
:10163000FCECCF2EFCECDF2EFCECEF2EFCE0FF2EC2
:1016400017C0C8E0D0E0C12CD12CE12CE0E1FE2E87
:101650000FC09E01442737FD4095542F60E070E095
:1016600080E090E80E941709C901DA016C017D0150
:1016700020E030E040E050E060E03E01882477FC6C
:101680008094982C70EDB72EBA0CE9E0EB1570F44D
:101690008A2D81548A3118F499ECB92E06C08A2D0E
:1016A00081568A3150F589EAB82EBA0C8B2D90E01C
:1016B0008C179D0714F56F3FE1F0C216D306E406C0
:1016C000F506B0F0CA01B901A40193010E942B0CE8
:1016D0009B01AC012B0D311D411D511D2130F0E04E
:1016E0003F07F0E04F07F0E85F0710F461E001C04A
:1016F0006FEFF801A1908F01C5CF2114310481F063
:10170000662331F001501040F1011183008308C0BD
:1017100051FE1AC002501040F1011183008314C021
:1017200067FF12C050FC05C02FEF3FEF4FEF5FE7A0
:1017300004C020E030E040E050E882E290E0909386
:10174000F5048093F40416C050FE08C050954095EF
:10175000309521953F4F4F4F5F4F0CC057FF0AC048
:1017600082E290E09093F5048093F4042FEF3FEF32
:101770004FEF5FE7B901CA01DF91CF911F910F9140
:10178000FF90EF90DF90CF90BF90AF909F908F90A1
:101790007F906F905F903F902F900895911148C077
:1017A000803219F089508550D0F70895FB01DC0193
:1017B0004150504088F08D9181341CF08B350CF4F1
:1017C000805E659161341CF06B350CF4605E861BA5
:1017D000611171F3990B0895881BFCCFFB01DC01AB
:1017E0008D91019080190110D9F3990B0895FB0197
:1017F0009F01E8944230C4F04532B4F44A3029F4F1
:1018000097FB1EF4909581959F4F642F77270E9438
:101810004A0C805D8A330CF0895D8193CB0100977F
:10182000A1F716F45DE251931082C9010C941B0CD0
:10183000992788270895DC01FC01672F7191772390
:10184000E1F7329704C07C916D9370836291AE177B
:10185000BF07C8F30895629FD001739FF001829F74
:10186000E00DF11D649FE00DF11D929FF00D839F2F
:10187000F00D749FF00D659FF00D9927729FB00DCC
:10188000E11DF91F639FB00DE11DF91FBD01CF01DF
:1018900011240895AA1BBB1B51E107C0AA1FBB1F3F
:1018A000A617B70710F0A61BB70B881F991F5A95EC
:1018B000A9F780959095BC01CD0108952F923F9294
:1018C0004F925F926F927F928F929F92AF92BF9250
:1018D000CF92DF92EF92FF920F931F93CF93DF93FC
:1018E000CDB7DEB7CA1BDB0B0FB6F894DEBF0FBE59
:1018F000CDBF09942A88398848885F846E847D84A6
:101900008C849B84AA84B984C884DF80EE80FD80A7
:101910000C811B81AA81B981CE0FD11D0FB6F8941D
:0E192000DEBF0FBECDBFED010895F894FFCFDE
:10192E004750474C4C0057494D5756004750565458
:10193E004700526561647920666F72206163746935
:10194E006F6E0000000000C90516062E066E059982
:06195E00057F05BD050038
:00000001FF
