:100000000C9481000C94A9000C94A9000C94A900F4
:100010000C94A9000C94A9000C94A9000C94A900BC
:100020000C94A9000C94A9000C94A9000C94A900AC
:100030000C94A9000C94A9000C94A9000C94A9009C
:100040000C9492070C94A9000C943F040C94A90002
:100050000C94A9000C94A9000C94A9000C94A9007C
:100060000C94A9000C94A9000000000024002700B3
:100070002A0000000000250028002B0000000000DE
:1000800023002600290004040404040404040202DA
:100090000202020203030303030301020408102007
:1000A0004080010204081020010204081020000012
:1000B0000007000201000003040600000000000029
:1000C0000000494E46494E4954594E414ECDCCCC84
:1000D0003D0AD7233C17B7D13877CC2B329595E61C
:1000E000241FB14F0A000020410000C84200401CFC
:1000F0004620BCBE4CCA1B0E5AAEC59D74003B03C5
:10010000370511241FBECFEFD8E0DEBFCDBF12E010
:10011000A0E0B1E0EAE1FBE102C005900D92A43558
:10012000B107D9F715E0A4E5B2E001C01D92A63DE4
:10013000B107E1F710E0C2E0D1E004C02297FE0170
:100140000E94760ACE3FD107C9F70E9438040C946A
:100150008B0D0C9400000F931F938C018B589F4FB5
:1001600060E070E00E947A0A0A521D4FD8016D9338
:100170007D938D939C931397065D1240F801E65290
:10018000FD4F0C571F4FD8018C91045810408083AD
:10019000C8018F549F4F60E070E00E947A0A0552B8
:1001A0001D4FF80160837183828393830B5112404A
:1001B000D8018C91015E1D4FF801808381E090E0B1
:1001C0001F910F9108950F931F938C018B589F4F90
:1001D00060E070E00E947A0A05531D4FD8016D93CC
:1001E0007D938D939C9313970B5C1240F801E15320
:1001F000FD4F0C571F4FD8018C910458104080833D
:10020000C8018D569F4F60E070E00E947A0A00534B
:100210001D4FF8016083718382839383005D1240D8
:10022000F801EC52FD4F0E551F4FD8018C91808381
:10023000015F1F4FF80180810C5D1D4FD8018C9329
:1002400081E090E01F910F9108958F929F92AF925D
:10025000BF92CF92DF92EF92FF920F931F93DF93A3
:10026000CF93CDB7DEB72C970FB6F894DEBF0FBE95
:10027000CDBF8C0125E7822E912C880E991ED401CA
:100280008C918B8306581F4FF8018081888704501A
:100290001040D8018C918C830B5F1F4FF801808137
:1002A000898704501040D8018C918D830B5F1F4FBC
:1002B000F80180818A8704501040D8018C918E8388
:1002C0000B5F1F4FF80180818B871F821D8693E093
:1002D000A92EB12CAC0EBD1EC5017E010894E11CF7
:1002E000F11CB7014AE050E00E94DA0B0B5B1D4F96
:1002F000D8016D937C9388E0C82ED12CCC0EDD1EE6
:10030000C601B7014AE050E00E94DA0BF80172938F
:1003100062938F010D521240D8018C918B830B5F39
:100320001F4FF8018081888704501040D8018C91BC
:100330008C830B5F1F4FF801808189870450104028
:10034000D8018C918D830B5F1F4FF80180818A87C4
:1003500004501040D8018C918E830B5F1F4FF80121
:1003600080818B871F821D86C501B7014AE050E05E
:100370000E94DA0B045D1D4FD8016D937C93C6017A
:10038000B7014AE050E00E94DA0BF80172936293E1
:100390008F01055C1240F801EC53FD4F0C571F4FC5
:1003A000D8018C918083025E1F4FF8018081095D26
:1003B0001D4FD8018C9308EB15E0C80160E071E097
:1003C0000E94A805C801B4010E94B906C80162E2F2
:1003D00071E00E94A805C801B5010E94B906C801D4
:1003E00065E371E00E94A805C801B6010E94B90644
:1003F00081E090E02C960FB6F894DEBF0FBECDBF23
:10040000CF91DF911F910F91FF90EF90DF90CF90F0
:10041000BF90AF909F908F9008950F931F93CF93AD
:10042000DF938C01EB01CB0168E471E00E94290DA0
:10043000009721F4C8010E94250115C0CE016EE489
:1004400071E00E94290D009721F4C8010E94E30089
:100450000AC0CE0164E571E00E94290D009719F4ED
:10046000C8010E94AB0081E090E0DF91CF911F9125
:100470000F910895FC0111821082E254FD4F118208
:1004800010820895DC01ED91FC9111971E161F0654
:1004900014F0643251F4EA0FFB1F62838D919C913A
:1004A0001197019611969C938E938D919C91119723
:1004B000843091055CF0FD01E80FF91F82913196BF
:1004C0008A3221F4128221E030E002C020E030E0E4
:1004D000C9010895CF92DF92EF92FF920F931F937D
:1004E000DF93CF93CDB7DEB72F970FB6F894DEBF6B
:1004F0000FBECDBF7C0140E050E0870102541D4F8C
:100500006E010894C11CD11C02C06F5F7F4FFB01BC
:1005100081818C32E1F08A32C1F519C0F801808105
:100520009181FC01A4E0EE0FFF1FAA95E1F7E81B03
:10053000F90BEE0DFF1DE20FF31FEA59FF4FD60135
:10054000A20FB31F8C9180832F5F3F4F02C020E02A
:1005500030E02417350714F3F80180819181FC0104
:1005600024E0EE0FFF1F2A95E1F7E81BF90BEE0DD3
:10057000FF1DE40FF51FEA59FF4F10820196F801A5
:100580009183808340E050E00AC0F601E40FF51F3C
:1005900080834F5F5F4FF601E40FF51F1082FB0170
:1005A00081818A3209F0B1CF81E090E02F960FB6B9
:1005B000F894DEBF0FBECDBFCF91DF911F910F9199
:1005C000FF90EF90DF90CF900895BC016E5F7F4F5A
:1005D0000E946A020895FC01E254FD4F11821082CC
:1005E000EE5BF240118210820895EF92FF920F931A
:1005F0001F93DF93CF9300D000D0CDB7DEB78C012F
:10060000FC01EE24FF2405C0992787FD9095E8267C
:10061000F926838131968A32B9F7D801ED91FC91A0
:10062000E00FF11F8081898381818A83CE01019649
:10063000BE016D5F7F4F40E150E00E94DA0BF80190
:100640001182108220E030E0E616F70611F421E076
:1006500030E0C9010F900F900F900F90CF91DF9174
:100660001F910F91FF90EF900895BC016E5F7F4F37
:100670000E94F502089584E592E00E943A020895EE
:10068000CF93DF9388EB95E06AE571E00E94B906AD
:1006900088EB95E066E572E00E94B90688EB95E08C
:1006A00068E671E00E94A80584E592E00E943503A7
:1006B000BC0188EB95E04AE050E00E94C40684E566
:1006C00092E00E94E502C0E0D0E022C088EB95E015
:1006D00062E771E00E94A80588EB95E0BE014AE060
:1006E00050E00E948F0688EB95E06AE771E00E9477
:1006F000A805BE0184E0660F771F8A95E1F76C1BA1
:100700007D0B66547D4F88EB95E00E94B9062196DB
:100710008091120590911305C817D907BCF284E5A2
:1007200092E06AEB72E00E940D0288EB95E06CE7C4
:1007300071E00E94A805609116057091170588EB7D
:1007400095E04AE050E00E94C40688EB95E067E936
:1007500071E00E94A805609114057091150588EB61
:1007600095E04AE050E00E94C40688EB95E062EB19
:1007700071E00E94A80588EB95E06091180540E0C3
:1007800050E00E94DF0688EB95E06AEC71E00E9481
:10079000A80560911B0570911C0588EB95E04AE067
:1007A00050E00E94C40688EB95E065EE71E00E947F
:1007B000A8056091190570911A0588EB95E04AE04B
:1007C00050E00E94C40688EB95E060E072E00E9471
:1007D000A80588EB95E060911D0540E050E00E947F
:1007E000DF0688EB95E068E172E00E94A805409181
:1007F000240550912505609126057091270588EB09
:1008000095E022E030E00E94870784E592E00E94B4
:10081000EB02DF91CF9108950DC088EB95E00E9427
:10082000F404682F84E592E00E944202892B11F0C3
:100830000E94400388EB95E00E94C904892B69F768
:1008400008950F931F938DE061E00E94150808EB57
:1008500015E0C80140E855E260E070E00E947004D5
:10086000C80167E272E00E94B9061F910F910895D6
:100870000E94DA070E9421040E940C04FDCF1F92FF
:100880000F920FB60F9211242F933F934F938F9394
:100890009F93EF93FF934091C600E091B405F091D0
:1008A000B50531969F012F77307031978091B6054D
:1008B0009091B7052817390739F0EC5CFA4F40835F
:1008C0003093B5052093B405FF91EF919F918F91DF
:1008D0004F913F912F910F900FBE0F901F90189541
:1008E000CF93DF93EC019A01AB01E885F9852030C5
:1008F00081EE380780E0480780E0580709F445C0DA
:1009000081E090E00A8802C0880F991F0A94E2F7FC
:10091000808360E079E08DE390E00E94520A2150EC
:100920003040404050405695479537952795EC818B
:10093000FD813083EE81FF812083EA85FB85208164
:1009400041E050E0CA010E8402C0880F991F0A944A
:10095000E2F7282B2083EA85FB852081CA010F84DA
:1009600002C0880F991F0A94E2F7282B2083EA859A
:10097000FB858081088802C0440F551F0A94E2F766
:10098000842B8083DF91CF910895108220E130E0A5
:10099000CECFDC011296ED91FC911397E058FF4FFA
:1009A0002191319180819181281B390B2F773070F3
:1009B000C9010895DC011296ED91FC911397EE5751
:1009C000FF4F2081318192918291E058F04082174F
:1009D000930719F42FEF3FEF05C0E20FF31F80815B
:1009E000282F30E0C9010895DC011296ED91FC91A9
:1009F0001397DF01AE57BF4F2D913C911197E058EF
:100A0000FF4F80819181E058F0408217930719F4DD
:100A10002FEF3FEF0BC0E20FF31F80812F5F3F4F9F
:100A20002F7730702D933C93282F30E0C901089523
:100A3000DC011296ED91FC911397EE57FF4F8081E8
:100A40009181929382930895FC01A085B1852189BB
:100A50008C9190E0022E02C0959587950A94E2F75A
:100A600080FFF6CF0484F585E02D6083089586E449
:100A700092E09093B9058093B80584E395E0909354
:100A8000BB058093BA0585EC90E09093BD058093FB
:100A9000BC0584EC90E09093BF058093BE0580EC8C
:100AA00090E09093C1058093C00581EC90E0909315
:100AB000C3058093C20586EC90E09093C5058093B2
:100AC000C40584E08093C60583E08093C70587E072
:100AD0008093C80585E08093C90581E08093CA05AD
:100AE00008950F931F93CF93DF938C01EB0109C0FF
:100AF0002196D801ED91FC910190F081E02DC80183
:100B0000099568816623A1F7DF91CF911F910F911D
:100B10000895EF92FF920F931F93CF93DF938C0171
:100B20007B01EA010CC0D7016D917D01D801ED91E7
:100B3000FC910190F081E02DC80109952197209743
:100B400091F7DF91CF911F910F91FF90EF90089552
:100B5000DC01ED91FC910280F381E02D099508956F
:100B60002F923F924F925F926F927F928F929F92BD
:100B7000AF92BF92CF92DF92EF92FF920F931F93AB
:100B8000DF93CF93CDB7DEB7A0970FB6F894DEBF53
:100B90000FBECDBF1C016A017B01411551056105E6
:100BA000710549F440E350E060E070E020E030E09F
:100BB0000E94590656C0882499245401422E552477
:100BC0006624772401E010E00C0F1D1F080D191D8D
:100BD000C701B601A30192010E94520AF801608385
:100BE0000894811C911CA11CB11CC701B601A30172
:100BF00092010E94520AC901DA016C017D01C114FF
:100C0000D104E104F104F1F681E0E82EF12CEC0EC0
:100C1000FD1EE80CF91C3E010894611C711CD501F5
:100C2000C4010197A109B1096C01C818D90816C0FF
:100C3000F601EE0DFF1D40814A3010F4405D01C009
:100C4000495C552747FD5095652F752FC10120E060
:100C500030E00E9459060894E108F1086E147F0400
:100C600039F7A0960FB6F894DEBF0FBECDBFCF9177
:100C7000DF911F910F91FF90EF90DF90CF90BF9089
:100C8000AF909F908F907F906F905F904F903F902C
:100C90002F900895DC012115310541F4ED91FC916F
:100CA0000190F081E02D642F099508950E94B00510
:100CB0000895EF92FF920F931F93CF93DF93EC0170
:100CC0007A018B012115310541F4E881F981019008
:100CD000F081E02D642F09951BC02A303105B1F455
:100CE00077FF10C04DE250E060E070E020E030E0BF
:100CF0000E94590610950095F094E094E11CF11CB7
:100D0000011D111DCE01B801A7012AE00E94B00506
:100D1000DF91CF911F910F91FF90EF900895EF9287
:100D2000FF920F931F937B019A010027F7FC009518
:100D3000102FB801A7010E9459061F910F91FF9033
:100D4000EF9008950F931F938C014DE050E060E009
:100D500070E020E030E00E945906C8014AE050E00F
:100D600060E070E020E030E00E9459061F910F9192
:100D700008950F931F938C010E94A805C8010E943B
:100D8000A2061F910F910895CF92DF92EF92FF92EA
:100D90000F931F938C016B019A01EE24D7FCE09412
:100DA000FE2CB701A6010E945906C8010E94A206A6
:100DB0001F910F91FF90EF90DF90CF900895CF9209
:100DC000DF92EF92FF920F931F938C01C62E9A0130
:100DD000DD24C7FCD094ED2CFD2CB701A6010E94A8
:100DE0005906C8010E94A2061F910F91FF90EF9033
:100DF000DF90CF9008959F92AF92BF92CF92DF92F3
:100E0000EF92FF920F931F93CF93DF93EC017A0140
:100E10008B01922ECB01BA0120E030E040E050E09F
:100E20000E94A00888236CF4CE014DE250E060E0FF
:100E300070E020E030E00E94590617FB109517F98A
:100E4000109520E030E040E05FE3AA240BC0CA0127
:100E5000B90120E030E040E251E40E94A4089B0187
:100E6000AC01A394A91498F3C801B7010E943C08EF
:100E70005B016C010E9411097B018C01CE01B8015C
:100E8000A7012AE030E00E944A06992029F0CE010D
:100E900060E472E00E94A805C801B7010E943D0904
:100EA0009B01AC01C601B5010E943B0822C020E0B5
:100EB00030E040E251E40E94EF097B018C010E9486
:100EC0000C095B016C01CC24B7FCC094DC2CCE0176
:100ED000B601A5012AE030E00E945906C601B5011D
:100EE0000E943F099B01AC01C801B7010E943B0869
:100EF0009A949920E1F6DF91CF911F910F91FF9085
:100F0000EF90DF90CF90BF90AF909F9008950F9398
:100F10001F938C010E94FB06C8010E94A2061F912C
:100F20000F9108951F920F920FB60F9211242F93D5
:100F30003F938F939F93AF93BF938091CF059091F1
:100F4000D005A091D105B091D2053091D30501967D
:100F5000A11DB11D232F2D5F2D3720F02D57019698
:100F6000A11DB11D2093D3058093CF059093D0058B
:100F7000A093D105B093D2058091CB059091CC057B
:100F8000A091CD05B091CE050196A11DB11D809314
:100F9000CB059093CC05A093CD05B093CE05BF9122
:100FA000AF919F918F913F912F910F900FBE0F9016
:100FB0001F901895789484B5826084BD84B5816053
:100FC00084BD85B5826085BD85B5816085BDEEE651
:100FD000F0E0808181608083E1E8F0E01082808130
:100FE00082608083808181608083E0E8F0E080819E
:100FF00081608083E1EBF0E0808184608083E0EBBE
:10100000F0E0808181608083EAE7F0E080818460A5
:101010008083808182608083808181608083808101
:10102000806880831092C1000895482F50E0CA0163
:1010300086569F4FFC0124914A575F4FFA018491D5
:101040008823C1F0E82FF0E0EE0FFF1FE859FF4FB3
:10105000A591B491662341F49FB7F8948C912095A3
:1010600082238C939FBF08959FB7F8948C91822B15
:101070008C939FBF08955058BB27AA270ED075C1E7
:1010800066D130F06BD120F031F49F3F11F41EF4A3
:101090005BC10EF4E095E7FB51C1E92F77D180F3F6
:1010A000BA17620773078407950718F071F49EF565
:1010B0008FC10EF4E0950B2EBA2FA02D0B01B901B4
:1010C00090010C01CA01A0011124FF27591B99F0BE
:1010D000593F50F4503E68F11A16F040A22F232FCA
:1010E000342F4427585FF3CF469537952795A7951A
:1010F000F0405395C9F77EF41F16BA0B620B730BC1
:10110000840BBAF09150A1F0FF0FBB1F661F771F31
:10111000881FC2F70EC0BA0F621F731F841F48F4E6
:10112000879577956795B795F7959E3F08F0B3CF6C
:101130009395880F08F09927EE0F97958795089556
:10114000D9D008F481E008950CD00FC107D140F048
:10115000FED030F021F45F3F19F0F0C0511139C1D9
:10116000F3C014D198F39923C9F35523B1F3951B18
:10117000550BBB27AA2762177307840738F09F5FB8
:101180005F4F220F331F441FAA1FA9F333D00E2E27
:101190003AF0E0E830D091505040E695001CCAF794
:1011A00029D0FE2F27D0660F771F881FBB1F261759
:1011B00037074807AB07B0E809F0BB0B802DBF012C
:1011C000FF2793585F4F2AF09E3F510568F0B6C045
:1011D00000C15F3FECF3983EDCF386957795679509
:1011E000B795F7959F5FC9F7880F911D96958795DD
:1011F00097F90895E1E0660F771F881FBB1F6217FC
:1012000073078407BA0720F0621B730B840BBA0BB9
:10121000EE1F88F7E095089504D06894B111D9C005
:101220000895BCD088F09F5790F0B92F9927B751F7
:10123000A0F0D1F0660F771F881F991F1AF0BA959A
:10124000C9F712C0B13081F0C3D0B1E00895C0C079
:10125000672F782F8827B85F39F0B93FCCF3869590
:1012600077956795B395D9F73EF4909580957095ED
:1012700061957F4F8F4F9F4F0895E89409C097FB6A
:101280003EF490958095709561957F4F8F4F9F4F5D
:101290009923A9F0F92F96E9BB279395F6958795A1
:1012A00077956795B795F111F8CFFAF4BB0F11F464
:1012B00060FF1BC06F5F7F4F8F4F9F4F16C088230B
:1012C00011F096E911C0772321F09EE8872F762F41
:1012D00005C0662371F096E8862F70E060E02AF082
:1012E0009A95660F771F881FDAF7880F969587956E
:1012F00097F90895990F0008550FAA0BE0E8FEEF43
:1013000016161706E807F907C0F012161306E407C9
:10131000F50798F0621B730B840B950B39F40A26C2
:1013200061F0232B242B252B21F408950A2609F4A0
:10133000A140A6958FEF811D811D089597F99F67A4
:1013400080E870E060E008959FEF80EC089500244D
:101350000A941616170618060906089500240A941A
:1013600012161306140605060895092E0394000CA0
:1013700011F4882352F0BB0F40F4BF2B11F460FF2F
:1013800004C06F5F7F4F8F4F9F4F089557FD905858
:10139000440F551F59F05F3F71F04795880F97FB39
:1013A000991F61F09F3F79F08795089512161306F3
:1013B0001406551FF2CF4695F1DF08C01616170622
:1013C0001806991FF1CF8695710561050894089557
:1013D000E894BB2766277727CB0197F908950BD0B0
:1013E000C4CFB5DF28F0BADF18F0952309F0A6CFF7
:1013F000ABCF1124EECFCADFA0F3959FD1F3950FA9
:1014000050E0551F629FF001729FBB27F00DB11D88
:10141000639FAA27F00DB11DAA1F649F6627B00D18
:10142000A11D661F829F2227B00DA11D621F739F01
:10143000B00DA11D621F839FA00D611D221F749F0F
:101440003327A00D611D231F849F600D211D822F56
:10145000762F6A2F11249F5750408AF0E1F088239D
:101460004AF0EE0FFF1FBB1F661F771F881F9150AA
:101470005040A9F79E3F510570F060CFAACF5F3F63
:10148000ECF3983EDCF3869577956795B795F795DD
:10149000E7959F5FC1F7FE2B880F911D9695879565
:1014A00097F90895A1E21A2EAA1BBB1BFD010DC0DE
:1014B000AA1FBB1FEE1FFF1FA217B307E407F50704
:1014C00020F0A21BB30BE40BF50B661F771F881FE0
:1014D000991F1A9469F760957095809590959B0176
:1014E000AC01BD01CF010895EE0FFF1F0590F491EF
:1014F000E02D0994A0E0B0E0E0E8FAE00C945A0D89
:10150000EC015B016115710519F0FB01918380838A
:10151000F9908F2D90E00E94090D892BC9F7FDE20B
:10152000FF1621F4F990EE24E39405C02BE2F216A5
:1015300009F4F990EE248E0101501040C80162ECCC
:1015400070E043E050E00E94110D892B01F58E01FF
:101550000E5F1F4FC80165EC70E045E050E00E944F
:10156000110D892B19F48E01095F1F4FA114B104CD
:1015700019F0F50111830083E0FC04C070E090E0F5
:1015800080E814C070E090E080E86FEF08C1C80107
:101590006AEC70E043E050E00E94110D892B69F481
:1015A000A114B10429F470E090E080EC6FE7F7C07B
:1015B0002296F501D183C083F6CF8824992440E098
:1015C00050E060E070E0EF2DE053EA30A0F5F2E08B
:1015D000EF2A8E2D90E09C0128703070E2FE06C04C
:1015E000232B79F50894811C911C2BC0232B19F017
:1015F000089481089108DB01CA0112E0880F991F45
:10160000AA1FBB1F1A95D1F7480F591F6A1F7B1FCE
:10161000440F551F661F771F4E0F511D611D711D11
:10162000483929E9520729E9620729E1720748F098
:1016300084E0E82A06C0EE3F31F4E3FC39C098E0CC
:10164000E92AF990C0CFE53311F0E53189F5299108
:101650002D3219F4E0E1EE2A05C02B3219F081E0B9
:1016600090E003C0299182E090E0E22FE053EA305D
:1016700018F0C81BD90B1CC020E030E0FCE020387B
:101680003F075CF4C901880F991F880F991F280F25
:10169000391F220F331F2E0F311DE991E053EA301D
:1016A00068F3E4FE03C0309521953F4F820E931EF0
:1016B000CE2CDD24E1FE07C0A114B10421F0219756
:1016C000F501D183C083CB01BA010E943D097B01A2
:1016D0008C01F3E0CF22DD2423E0C216D10421F4F3
:1016E00017FB109517F9109557016801C801B7014C
:1016F00020E030E040E050E00E94A008882309F498
:101700004AC097FE0DC021EEE22E20E0F22E90940A
:10171000819491089394C0E2D0E000E010E012C000
:1017200099EFE92E90E0F92EF6CFF701259135914A
:1017300045915491C601B5010E94EF095B016C010E
:101740008C1A9D0A8C169D0684F7D595C7950F5F58
:101750001F4F0630110529F08CEF9FEFE80EF91EA0
:10176000F1CFC501D6017C018D018C2D880F8D2D07
:10177000881F8F3F51F0C601B50120E030E040E006
:1017800050E00E94A008882331F482E290E0909318
:10179000D5058093D4057E2D9F2D802F612F272F77
:1017A000392F482F562FB901CA01CDB7DEB7ECE06B
:1017B0000C94760D2F923F925F926F927F928F9250
:1017C0009F92AF92BF92CF92DF92EF92FF920F93D0
:1017D0001F93CF93DF938C011B01EA016115710503
:1017E00019F0FB0191838083209749F0CE01029785
:1017F000839728F020E030E040E050E0F6C0F801A8
:10180000A1908F018A2D90E00E94090D892BB9F7D4
:10181000FDE2AF1631F4F801A1908F0155245394E5
:1018200007C0FBE2AF1619F4F801A1908F0155240F
:10183000209719F0C031D105C1F4F0E3AF1679F467
:10184000F8018081883711F0883549F4F801A180CA
:101850000E5F1F4FF2E05F2AC0E1D0E006C0209784
:1018600021F480E3A816E9F427C0C830D10531F18E
:10187000C930D10524F4C230D10531F50CC0CA30CD
:10188000D10589F0C031D105F9F4C12CD12CE12C5E
:10189000B8E0FB2E28C0C12CD12CE12CA0E4FA2EFC
:1018A00022C0CAE0D0E0FCECCF2EFCECDF2EFCEC3A
:1018B000EF2EFCE0FF2E17C0C8E0D0E0C12CD12CE9
:1018C000E12CE0E1FE2E0FC09E01442737FD40953C
:1018D000542F60E070E080E090E80E94520AC90155
:1018E000DA016C017D0120E030E040E050E060E092
:1018F0003E01882477FC8094982C70EDB72EBA0CAA
:10190000E9E0EB1570F48A2D81548A3118F499ECD2
:10191000B92E06C08A2D81568A3150F589EAB82E33
:10192000BA0C8B2D90E08C179D0714F56F3FE1F0FA
:10193000C216D306E406F506B0F0CA01B901A40147
:1019400093010E94350D9B01AC012B0D311D411DF2
:10195000511D2130F0E03F07F0E04F07F0E85F074E
:1019600010F461E001C06FEFF801A1908F01C5CFC5
:101970002114310481F0662331F001501040F1014F
:101980001183008308C051FE1AC002501040F101BB
:101990001183008314C067FF12C050FC05C02FEFF5
:1019A0003FEF4FEF5FE704C020E030E040E050E859
:1019B00082E290E09093D5058093D40516C050FE46
:1019C00008C050954095309521953F4F4F4F5F4F40
:1019D0000CC057FF0AC082E290E09093D505809337
:1019E000D4052FEF3FEF4FEF5FE7B901CA01DF9159
:1019F000CF911F910F91FF90EF90DF90CF90BF900C
:101A0000AF909F908F907F906F905F903F902F90BE
:101A10000895911127C0803219F089508550D0F770
:101A20000895FB01DC014150504088F08D918134D4
:101A30001CF08B350CF4805E659161341CF06B35C5
:101A40000CF4605E861B611171F3990B0895881B7D
:101A5000FCCFFB01DC018D91019080190110D9F3BD
:101A6000990B0895992788270895629FD001739F45
:101A7000F001829FE00DF11D649FE00DF11D929F2A
:101A8000F00D839FF00D749FF00D659FF00D992769
:101A9000729FB00DE11DF91F639FB00DE11DF91F8D
:101AA000BD01CF01112408952F923F924F925F9272
:101AB0006F927F928F929F92AF92BF92CF92DF925E
:101AC000EF92FF920F931F93CF93DF93CDB7DEB7C3
:101AD000CA1BDB0B0FB6F894DEBF0FBECDBF099457
:101AE0002A88398848885F846E847D848C849B84AE
:101AF000AA84B984C884DF80EE80FD800C811B81BC
:101B0000AA81B981CE0FD11D0FB6F894DEBF0FBEEA
:0A1B1000CDBFED010895F894FFCF5A
:101B1A005468652063757272656E742076616C759F
:101B2A0065206F6620537472696E6720312069736D
:101B3A0020004D696E7574657320696E2073747226
:101B4A00696E6720004465677265657320696E2057
:101B5A00537472696E6720004750474C4C005749CE
:101B6A004D5756004750565447004E4D4541204464
:101B7A00657465637465640056616C69643F2E2EF2
:101B8A002E00537472696E67200020005468652025
:101B9A006D696E75746573206C61747469747564AB
:101BAA006520617265200054686520646567726506
:101BBA006573206C617474697475646520617265FB
:101BCA0020004C6174746974756465204469726597
:101BDA006374696F6E2069732000546865206D69AB
:101BEA006E75746573206C6F6E67697475646520B1
:101BFA006172652000546865206465677265657363
:101C0A00206C6F6E67697475646520617265200067
:101C1A006C6F6E6769747564652044697265637474
:101C2A00696F6E206973200057696E64205370656E
:101C3A0065642069732000526561647920616E646D
:101C4A00206177616974696E6720696E70757400C6
:101C5A002E0000000000240571058905C904F4045A
:041C6A00DA0418057B
:00000001FF
