:100000000C9463000C948B000C948B000C948B006C
:100010000C948B000C948B000C948B000C948B0034
:100020000C948B000C948B000C948B000C948B0024
:100030000C948B000C948B000C948B000C948B0014
:100040000C94AD040C948B000C941C020C948B004B
:100050000C948B000C948B000C948B000C948B00F4
:100060000C948B000C948B000000000024002700EF
:100070002A0000000000250028002B0000000000DE
:1000800023002600290004040404040404040202DA
:100090000202020203030303030301020408102007
:1000A0004080010204081020010204081020000012
:1000B0000007000201000003040600000000000029
:1000C00000008E01140311241FBECFEFD8E0DEBF65
:1000D000CDBF11E0A0E0B1E0E2EBFDE002C0059091
:1000E0000D92AE34B107D9F714E0AEE4B1E001C02F
:1000F0001D92A03BB107E1F710E0C6ECD0E004C0D0
:100100002297FE010E947A05C23CD107C9F70E94DE
:1001100015020C94D7060C940000FC011182108289
:10012000E254FD4F118210820895DC01ED91FC91A3
:1001300011971E161F0614F0643251F4EA0FFB1FCC
:1001400062838D919C911197019611969C938E9349
:100150008D919C911197843091055CF0FD01E80F21
:10016000F91F829131968A3221F4128221E030E027
:1001700002C020E030E0C9010895CF92DF92EF92F3
:10018000FF920F931F93DF93CF93CDB7DEB72F97D7
:100190000FB6F894DEBF0FBECDBF7C0140E050E04B
:1001A000870102541D4F6E010894C11CD11C02C06E
:1001B0006F5F7F4FFB0181818C32E1F08A32C1F5A4
:1001C00019C0F80180819181FC01A4E0EE0FFF1FAE
:1001D000AA95E1F7E81BF90BEE0DFF1DE20FF31FE7
:1001E000EA59FF4FD601A20FB31F8C9180832F5F76
:1001F0003F4F02C020E030E02417350714F3F80128
:1002000080819181FC0124E0EE0FFF1F2A95E1F728
:10021000E81BF90BEE0DFF1DE40FF51FEA59FF4F28
:1002200010820196F8019183808340E050E00AC07B
:10023000F601E40FF51F80834F5F5F4FF601E40F77
:10024000F51F1082FB0181818A3209F0B1CF81E074
:1002500090E02F960FB6F894DEBF0FBECDBFCF91C2
:10026000DF911F910F91FF90EF90DF90CF90089555
:10027000BC016E5F7F4F0E94BD000895FC01E254F7
:10028000FD4F11821082EE5BF240118210820895C0
:10029000EF92FF920F931F93DF93CF9300D000D084
:1002A000CDB7DEB78C01FC01EE24FF2405C09927F1
:1002B00087FD9095E826F926838131968A32B9F731
:1002C000D801ED91FC91E00FF11F8081898381813C
:1002D0008A83CE010196BE016D5F7F4F40E150E001
:1002E0000E947E05F8011182108220E030E0E616BF
:1002F000F70611F421E030E0C9010F900F900F9044
:100300000F90CF91DF911F910F91FF90EF90089583
:10031000BC016E5F7F4F0E94480108958EE491E01A
:100320000E948D000895CF93DF9382E994E060E00E
:1003300071E00E94870482E994E060E571E00E9428
:10034000870482E994E06EE071E00E9485038EE408
:1003500091E00E948801BC0182E994E04AE050E00B
:100360000E9492048EE491E00E943801C0E0D0E047
:1003700022C082E994E068E171E00E94850382E98D
:1003800094E0BE014AE050E00E945D0482E994E0FE
:1003900060E271E00E948503BE0184E0660F771F72
:1003A0008A95E1F76C1B7D0B6C547E4F82E994E0DB
:1003B0000E948704219680910C0490910D04C81727
:1003C000D907BCF28EE491E00E943E01DF91CF910B
:1003D00008950DC082E994E00E94D102682F8EE456
:1003E00091E00E949500892B11F00E94930182E90F
:1003F00094E00E94A602892B69F708950F931F933A
:100400008DE061E00E94300502E914E0C80140E897
:1004100055E260E070E00E944D02C80162E271E0C6
:100420000E9487041F910F9108950E94F5040E9475
:10043000FE010E94E901FDCF1F920F920FB60F92AD
:1004400011242F933F934F938F939F93EF93FF9399
:100450004091C600E0918E04F0918F0431969F0187
:100460002F773070319780919004909191042817E4
:10047000390739F0E25FFB4F408330938F042093BC
:100480008E04FF91EF919F918F914F913F912F910A
:100490000F900FBE0F901F901895CF93DF93EC0134
:1004A0009A01AB01E885F985203081EE380780E0BC
:1004B000480780E0580709F445C081E090E00A88C9
:1004C00002C0880F991F0A94E2F7808360E079E008
:1004D0008DE390E00E94560521503040404050404E
:1004E0005695479537952795EC81FD813083EE81B0
:1004F000FF812083EA85FB85208141E050E0CA012D
:100500000E8402C0880F991F0A94E2F7282B2083DB
:10051000EA85FB852081CA010F8402C0880F991FDC
:100520000A94E2F7282B2083EA85FB8580810888DE
:1005300002C0440F551F0A94E2F7842B8083DF9199
:10054000CF910895108220E130E0CECFDC011296E9
:10055000ED91FC911397E058FF4F219131918081EB
:100560009181281B390B2F773070C9010895DC0168
:100570001296ED91FC911397EE57FF4F2081318138
:1005800092918291E058F0408217930719F42FEF6F
:100590003FEF05C0E20FF31F8081282F30E0C90133
:1005A0000895DC011296ED91FC911397DF01AE578F
:1005B000BF4F2D913C911197E058FF4F8081918161
:1005C000E058F0408217930719F42FEF3FEF0BC06C
:1005D000E20FF31F80812F5F3F4F2F7730702D93F5
:1005E0003C93282F30E0C9010895DC011296ED916B
:1005F000FC911397EE57FF4F8081918192938293E4
:100600000895FC01A085B18521898C9190E0022E8E
:1006100002C0959587950A94E2F780FFF6CF04848F
:10062000F585E02D608308958FE391E09093930426
:10063000809392048EE094E09093950480939404C8
:1006400085EC90E0909397048093960484EC90E07E
:10065000909399048093980480EC90E090939B048D
:1006600080939A0481EC90E090939D0480939C0485
:1006700086EC90E090939F0480939E0484E08093A6
:10068000A00483E08093A10487E08093A20485E026
:100690008093A30481E08093A40408950F931F9393
:1006A000CF93DF938C01EB0109C02196D801ED9126
:1006B000FC910190F081E02DC801099568816623C5
:1006C000A1F7DF91CF911F910F910895EF92FF92C3
:1006D0000F931F93CF93DF938C017B01EA010CC032
:1006E000D7016D917D01D801ED91FC910190F081D0
:1006F000E02DC80109952197209791F7DF91CF91BF
:100700001F910F91FF90EF900895DC01ED91FC9106
:100710000280F381E02D099508952F923F924F9228
:100720005F926F927F928F929F92AF92BF92CF9281
:10073000DF92EF92FF920F931F93DF93CF93CDB78A
:10074000DEB7A0970FB6F894DEBF0FBECDBF1C0179
:100750006A017B01411551056105710549F440E3CA
:1007600050E060E070E020E030E00E94270456C0D6
:10077000882499245401422E55246624772401E0CC
:1007800010E00C0F1D1F080D191DC701B601A301B4
:1007900092010E945605F80160830894811C911C07
:1007A000A11CB11CC701B601A30192010E9456050C
:1007B000C901DA016C017D01C114D104E104F10425
:1007C000F1F681E0E82EF12CEC0EFD1EE80CF91C90
:1007D0003E010894611C711CD501C4010197A10957
:1007E000B1096C01C818D90816C0F601EE0DFF1D3D
:1007F00040814A3010F4405D01C0495C552747FDF7
:100800005095652F752FC10120E030E00E9427042C
:100810000894E108F1086E147F0439F7A0960FB62A
:10082000F894DEBF0FBECDBFCF91DF911F910F9126
:10083000FF90EF90DF90CF90BF90AF909F908F9000
:100840007F906F905F904F903F902F900895EF9220
:10085000FF920F931F93CF93DF93EC017A018B01EB
:100860002115310541F4E881F9810190F081E02DF5
:10087000642F09951BC02A303105B1F477FF10C0F1
:100880004DE250E060E070E020E030E00E9427049C
:1008900010950095F094E094E11CF11C011D111DD0
:1008A000CE01B801A7012AE00E948D03DF91CF910C
:1008B0001F910F91FF90EF900895EF92FF920F9389
:1008C0001F937B019A010027F7FC0095102FB801B8
:1008D000A7010E9427041F910F91FF90EF900895A8
:1008E0000F931F938C014DE050E060E070E020E03A
:1008F00030E00E942704C8014AE050E060E070E068
:1009000020E030E00E9427041F910F9108950F937B
:100910001F938C010E948503C8010E9470041F91DF
:100920000F910895CF92DF92EF92FF920F931F9352
:100930008C016B019A01EE24D7FCE094FE2CB701E8
:10094000A6010E942704C8010E9470041F910F9104
:10095000FF90EF90DF90CF9008951F920F920FB607
:100960000F9211242F933F938F939F93AF93BF9335
:100970008091A9049091AA04A091AB04B091AC0419
:100980003091AD040196A11DB11D232F2D5F2D3790
:1009900020F02D570196A11DB11D2093AD04809329
:1009A000A9049093AA04A093AB04B093AC048091E3
:1009B000A5049091A604A091A704B091A804019663
:1009C000A11DB11D8093A5049093A604A093A70434
:1009D000B093A804BF91AF919F918F913F912F91B8
:1009E0000F900FBE0F901F901895789484B5826079
:1009F00084BD84B5816084BD85B5826085BD85B5C3
:100A0000816085BDEEE6F0E0808181608083E1E871
:100A1000F0E01082808182608083808181608083A9
:100A2000E0E8F0E0808181608083E1EBF0E08081AC
:100A300084608083E0EBF0E0808181608083EAE77E
:100A4000F0E0808184608083808182608083808107
:100A5000816080838081806880831092C1000895C6
:100A6000482F50E0CA0186569F4FFC0124914A57F7
:100A70005F4FFA0184918823C1F0E82FF0E0EE0F78
:100A8000FF1FE859FF4FA591B491662341F49FB72A
:100A9000F8948C91209582238C939FBF08959FB7E3
:100AA000F8948C91822B8C939FBF0895A1E21A2E0B
:100AB000AA1BBB1BFD010DC0AA1FBB1FEE1FFF1F02
:100AC000A217B307E407F50720F0A21BB30BE40B52
:100AD000F50B661F771F881F991F1A9469F7609599
:100AE0007095809590959B01AC01BD01CF01089553
:100AF000EE0FFF1F0590F491E02D09942F923F9285
:100B00005F926F927F928F929F92AF92BF92CF929D
:100B1000DF92EF92FF920F931F93CF93DF938C019D
:100B20001B01EA016115710519F0FB0191838083B6
:100B3000209749F0CE010297839728F020E030E01B
:100B400040E050E0F6C0F801A1908F018A2D90E0BE
:100B50000E94AD06892BB9F7FDE2AF1631F4F8011A
:100B6000A1908F015524539407C0FBE2AF1619F4EE
:100B7000F801A1908F015524209719F0C031D105BB
:100B8000C1F4F0E3AF1679F4F8018081883711F0F1
:100B9000883549F4F801A1800E5F1F4FF2E05F2A0B
:100BA000C0E1D0E006C0209721F480E3A816E9F464
:100BB00027C0C830D10531F1C930D10524F4C23085
:100BC000D10531F50CC0CA30D10589F0C031D1054D
:100BD000F9F4C12CD12CE12CB8E0FB2E28C0C12C9B
:100BE000D12CE12CA0E4FA2E22C0CAE0D0E0FCEC2B
:100BF000CF2EFCECDF2EFCECEF2EFCE0FF2E17C01E
:100C0000C8E0D0E0C12CD12CE12CE0E1FE2E0FC0D9
:100C10009E01442737FD4095542F60E070E080E04E
:100C200090E80E945605C901DA016C017D0120E0BF
:100C300030E040E050E060E03E01882477FC8094A2
:100C4000982C70EDB72EBA0CE9E0EB1570F48A2DF4
:100C500081548A3118F499ECB92E06C08A2D815638
:100C60008A3150F589EAB82EBA0C8B2D90E08C179A
:100C70009D0714F56F3FE1F0C216D306E406F506B2
:100C8000B0F0CA01B901A40193010E94B8069B010A
:100C9000AC012B0D311D411D511D2130F0E03F07EE
:100CA000F0E04F07F0E85F0710F461E001C06FEF7C
:100CB000F801A1908F01C5CF2114310481F0662382
:100CC00031F001501040F1011183008308C051FE42
:100CD0001AC002501040F1011183008314C067FF55
:100CE00012C050FC05C02FEF3FEF4FEF5FE704C08D
:100CF00020E030E040E050E882E290E09093AF04E2
:100D00008093AE0416C050FE08C0509540953095B3
:100D100021953F4F4F4F5F4F0CC057FF0AC082E2F3
:100D200090E09093AF048093AE042FEF3FEF4FEF2E
:100D30005FE7B901CA01DF91CF911F910F91FF9039
:100D4000EF90DF90CF90BF90AF909F908F907F906B
:100D50006F905F903F902F900895911106C0803260
:100D600019F089508550D0F708959927882708955C
:100D7000629FD001739FF001829FE00DF11D649F7F
:100D8000E00DF11D929FF00D839FF00D749FF00D0B
:100D9000659FF00D9927729FB00DE11DF91F639FAC
:100DA000B00DE11DF91FBD01CF0111240895F89484
:020DB000FFCF73
:100DB2004E4D454120446574656374656400566117
:100DC2006C69643F2E2E2E00537472696E67200088
:100DD2002000526561647920616E642061776169E7
:100DE20074696E6720696E707574000000000001FE
:0E0DF200034E036603A602D102B702F502000B
:00000001FF
