:100000000C9481000C94A9000C94A9000C94A900F4
:100010000C94A9000C94A9000C94A9000C94A900BC
:100020000C94A9000C94A9000C94A9000C94A900AC
:100030000C94A9000C94A9000C94A9000C94A9009C
:100040000C94B2060C94A9000C947B030C94A900A8
:100050000C94A9000C94A9000C94A9000C94A9007C
:100060000C94A9000C94A9000000000024002700B3
:100070002A0000000000250028002B0000000000DE
:1000800023002600290004040404040404040202DA
:100090000202020203030303030301020408102007
:1000A0004080010204081020010204081020000012
:1000B0000007000201000003040600000000000029
:1000C0000000494E46494E4954594E414ECDCCCC84
:1000D0003D0AD7233C17B7D13877CC2B329595E61C
:1000E000241FB14F0A000020410000C84200401CFC
:1000F0004620BCBE4CCA1B0E5AAEC59D7400BF0242
:10010000730411241FBECFEFD8E0DEBFCDBF11E0D6
:10011000A0E0B1E0E6EAF9E102C005900D92A23953
:10012000B107D9F715E0A2E9B1E001C01D92A231F3
:10013000B107E1F710E0C2E0D1E004C02297FE0170
:100140000E949609CE3FD107C9F70E9474030C9410
:10015000D10C0C9400000F931F938C018B589F4F70
:1001600060E070E00E949A090D521D4FD8016D9316
:100170007D938D939C931397035D1240F801E95290
:10018000FD4F0C571F4FD8018C91045810408083AD
:10019000C8018D569F4F60E070E00E949A09085296
:1001A0001D4FF8016083718382839383085D124041
:1001B000F801E452FD4F0E551F4FD8018C918083FA
:1001C000015F1F4FF8018081045D1D4FD8018C93A2
:1001D00081E090E01F910F910895CF92DF92EF920E
:1001E000FF920F931F93DF93CF93CDB7DEB728977E
:1001F0000FB6F894DEBF0FBECDBF6C01DC01AB586B
:10020000BF4F8C918823D1F020E030E0BE016F5FBA
:100210007F4FAE014B5F5F4FFB01E20FF31F8C91ED
:100220008083FA01E20FF31F15968C911597808356
:100230002F5F3F4F11962330310571F77E010894EF
:10024000E11CF11CC7010E94290C24EC32E0C20E13
:10025000D31EAA2797FDA095BA2FBC01CD010E94FD
:100260005F08D6016D937D938D939C9313978E01B8
:100270000B5F1F4FC8010E94290CAA2797FDA0956C
:10028000BA2FBC01CD010E945F08F60192938293C0
:10029000729362936F01C7010E94290C2DE030E038
:1002A000C20ED31EAA2797FDA095BA2FBC01CD017F
:1002B0000E945F08D6016D937D938D939C93139755
:1002C000C8010E94290CAA2797FDA095BA2FBC014E
:1002D000CD010E945F08F60192938293729362931C
:1002E0006F0127E33DEFC20ED31EF601E853FD4F29
:1002F00084E890E0C80ED91ED6018C918083EEE18F
:10030000F0E0CE0EDF1ED6018C91EFE2F2E0CE0ED1
:10031000DF1ED6018C9381E090E028960FB6F8940A
:10032000DEBF0FBECDBFCF91DF911F910F91FF9028
:10033000EF90DF90CF9008950F931F93CF93DF93AB
:100340008C01EB01CB0160E071E00E94670C00972B
:1003500021F0C8010E94ED000AC0CE0166E071E004
:100360000E94670C009719F0C8010E94AB0081E061
:1003700090E0DF91CF911F910F910895FC011182C0
:100380001082E254FD4F118210820895DC01ED913C
:10039000FC9111971E161F0614F0643251F4EA0FF7
:1003A000FB1F62838D919C911197019611969C93EE
:1003B0008E938D919C911197843091055CF0FD0195
:1003C000E80FF91F829131968A3221F4128221E0DE
:1003D00030E002C020E030E0C9010895CF92DF9202
:1003E000EF92FF920F931F93DF93CF93CDB7DEB7BA
:1003F0002F970FB6F894DEBF0FBECDBF7C0140E053
:1004000050E0870102541D4F6E010894C11CD11C9D
:1004100002C06F5F7F4FFB0181818C32E1F08A3235
:10042000C1F519C0F80180819181FC01A4E0EE0FB3
:10043000FF1FAA95E1F7E81BF90BEE0DFF1DE20F78
:10044000F31FEA59FF4FD601A20FB31F8C9180838F
:100450002F5F3F4F02C020E030E02417350714F330
:10046000F80180819181FC0124E0EE0FFF1F2A95A5
:10047000E1F7E81BF90BEE0DFF1DE40FF51FEA593C
:10048000FF4F10820196F8019183808340E050E095
:100490000AC0F601E40FF51F80834F5F5F4FF6013E
:1004A000E40FF51F1082FB0181818A3209F0B1CF80
:1004B00081E090E02F960FB6F894DEBF0FBECDBF5F
:1004C000CF91DF911F910F91FF90EF90DF90CF9030
:1004D0000895BC016E5F7F4F0E94EE010895FC01FC
:1004E000E254FD4F11821082EE5BF24011821082C5
:1004F0000895EF92FF920F931F93DF93CF9300D055
:1005000000D0CDB7DEB78C01FC01EE24FF2405C07E
:10051000992787FD9095E826F926838131968A32BE
:10052000B9F7D801ED91FC91E00FF11F808189832B
:1005300081818A83CE010196BE016D5F7F4F40E1CC
:1005400050E00E94FA0AF8011182108220E030E0A7
:10055000E616F70611F421E030E0C9010F900F9084
:100560000F900F90CF91DF911F910F91FF90EF901F
:100570000895BC016E5F7F4F0E947902089582E961
:1005800091E00E94BE010895CF93DF9384EF94E041
:100590006CE071E00E94F50584EF94E064E971E09D
:1005A0000E94F50584EF94E06AE171E00E94E404A2
:1005B00082E991E00E94B902BC0184EF94E04AE034
:1005C00050E00E94000682E991E00E946902C0E0CA
:1005D000D0E022C084EF94E064E271E00E94E40481
:1005E00084EF94E0BE014AE050E00E94CB0584EF26
:1005F00094E06CE271E00E94E404BE0184E0660FC6
:10060000771F8A95E1F76C1B7D0B68507E4F84EF56
:1006100094E00E94F5052196809150049091510438
:10062000C817D907BCF282E991E068EF71E00E9437
:100630009C0184EF94E06EE271E00E94E40440913A
:10064000520450915304609154047091550484EF06
:1006500094E022E030E00E94A70684EF94E069E491
:1006600071E00E94E4044091560450915704609157
:1006700058047091590484EF94E022E030E00E9425
:10068000A70682E991E00E946F02DF91CF91089561
:100690000DC084EF94E00E943004682F82E991E05D
:1006A0000E94C601892B11F00E94C40284EF94E0DD
:1006B0000E940504892B69F708950F931F938DE01D
:1006C00061E00E94350704EF14E0C80140E855E2FC
:1006D00060E070E00E94AC03C80164E671E00E9433
:1006E000F5051F910F9108950E94FA060E945D037F
:1006F0000E944803FDCF1F920F920FB60F92112454
:100700002F933F934F938F939F93EF93FF9340913A
:10071000C600E091F004F091F10431969F012F772B
:10072000307031978091F2049091F30428173907C3
:1007300039F0E059FB4F40833093F1042093F004EB
:10074000FF91EF919F918F914F913F912F910F903A
:100750000FBE0F901F901895CF93DF93EC019A0175
:10076000AB01E885F985203081EE380780E0480745
:1007700080E0580709F445C081E090E00A8802C093
:10078000880F991F0A94E2F7808360E079E08DE397
:1007900090E00E94720921503040404050405695F0
:1007A000479537952795EC81FD813083EE81FF8158
:1007B0002083EA85FB85208141E050E0CA010E8458
:1007C00002C0880F991F0A94E2F7282B2083EA853C
:1007D000FB852081CA010F8402C0880F991F0A94EB
:1007E000E2F7282B2083EA85FB858081088802C0F8
:1007F000440F551F0A94E2F7842B8083DF91CF9139
:100800000895108220E130E0CECFDC011296ED9108
:10081000FC911397E058FF4F219131918081918194
:10082000281B390B2F773070C9010895DC0112960F
:10083000ED91FC911397EE57FF4F208131819291FA
:100840008291E058F0408217930719F42FEF3FEFA1
:1008500005C0E20FF31F8081282F30E0C901089501
:10086000DC011296ED91FC911397DF01AE57BF4F5B
:100870002D913C911197E058FF4F80819181E05874
:10088000F0408217930719F42FEF3FEF0BC0E20FF0
:10089000F31F80812F5F3F4F2F7730702D933C9354
:1008A000282F30E0C9010895DC011296ED91FC91EA
:1008B0001397EE57FF4F8081918192938293089511
:1008C000FC01A085B18521898C9190E0022E02C0A7
:1008D000959587950A94E2F780FFF6CF0484F58515
:1008E000E02D6083089583E891E09093F504809370
:1008F000F40480E794E09093F7048093F60485EC89
:1009000090E09093F9048093F80484EC90E0909345
:10091000FB048093FA0480EC90E09093FD048093B4
:10092000FC0481EC90E09093FF048093FE0486EC3D
:1009300090E0909301058093000584E08093020588
:1009400083E08093030587E08093040585E080932E
:10095000050581E08093060508950F931F93CF93BB
:10096000DF938C01EB0109C02196D801ED91FC9138
:100970000190F081E02DC801099568816623A1F7F7
:10098000DF91CF911F910F910895EF92FF920F93F6
:100990001F93CF93DF938C017B01EA010CC0D70139
:1009A0006D917D01D801ED91FC910190F081E02DD8
:1009B000C80109952197209791F7DF91CF911F9159
:1009C0000F91FF90EF900895DC01ED91FC91028072
:1009D000F381E02D099508952F923F924F925F92F7
:1009E0006F927F928F929F92AF92BF92CF92DF923F
:1009F000EF92FF920F931F93DF93CF93CDB7DEB7A4
:100A0000A0970FB6F894DEBF0FBECDBF1C016A01E0
:100A10007B01411551056105710549F440E350E042
:100A200060E070E020E030E00E94950556C0882428
:100A300099245401422E55246624772401E010E0C5
:100A40000C0F1D1F080D191DC701B601A30192014E
:100A50000E947209F80160830894811C911CA11CFA
:100A6000B11CC701B601A30192010E947209C9011C
:100A7000DA016C017D01C114D104E104F104F1F645
:100A800081E0E82EF12CEC0EFD1EE80CF91C3E0175
:100A90000894611C711CD501C4010197A109B10919
:100AA0006C01C818D90816C0F601EE0DFF1D408173
:100AB0004A3010F4405D01C0495C552747FD509510
:100AC000652F752FC10120E030E00E949505089444
:100AD000E108F1086E147F0439F7A0960FB6F89478
:100AE000DEBF0FBECDBFCF91DF911F910F91FF9061
:100AF000EF90DF90CF90BF90AF909F908F907F90BE
:100B00006F905F904F903F902F900895DC012115DA
:100B1000310541F4ED91FC910190F081E02D642FBD
:100B2000099508950E94EC040895EF92FF920F93A7
:100B30001F93CF93DF93EC017A018B0121153105CF
:100B400041F4E881F9810190F081E02D642F09954D
:100B50001BC02A303105B1F477FF10C04DE250E0E0
:100B600060E070E020E030E00E949505109500956F
:100B7000F094E094E11CF11C011D111DCE01B8019F
:100B8000A7012AE00E94EC04DF91CF911F910F9101
:100B9000FF90EF900895EF92FF920F931F937B01C8
:100BA0009A010027F7FC0095102FB801A7010E94B9
:100BB00095051F910F91FF90EF9008950F931F934C
:100BC0008C014DE050E060E070E020E030E00E94F9
:100BD0009505C8014AE050E060E070E020E030E0B8
:100BE0000E9495051F910F9108950F931F938C01FB
:100BF0000E94E404C8010E94DE051F910F91089530
:100C0000CF92DF92EF92FF920F931F938C016B01B3
:100C10009A01EE24D7FCE094FE2CB701A6010E94B5
:100C20009505C8010E94DE051F910F91FF90EF907E
:100C3000DF90CF9008959F92AF92BF92CF92DF92B4
:100C4000EF92FF920F931F93CF93DF93EC017A0102
:100C50008B01922ECB01BA0120E030E040E050E061
:100C60000E94C00788236CF4CE014DE250E060E0A2
:100C700070E020E030E00E94950517FB109517F911
:100C8000109520E030E040E05FE3AA240BC0CA01E9
:100C9000B90120E030E040E251E40E94C4079B012A
:100CA000AC01A394A91498F3C801B7010E945C0792
:100CB0005B016C010E9431087B018C01CE01B801FF
:100CC000A7012AE030E00E948605992029F0CE0194
:100CD0006DE771E00E94E404C801B7010E945D085D
:100CE0009B01AC01C601B5010E945B0722C020E058
:100CF00030E040E251E40E940F097B018C010E9428
:100D00002C085B016C01CC24B7FCC094DC2CCE0118
:100D1000B601A5012AE030E00E949505C601B501A3
:100D20000E945F089B01AC01C801B7010E945B07EC
:100D30009A949920E1F6DF91CF911F910F91FF9046
:100D4000EF90DF90CF90BF90AF909F9008950F935A
:100D50001F938C010E941B06C8010E94DE051F9193
:100D60000F9108951F920F920FB60F9211242F9397
:100D70003F938F939F93AF93BF9380910B05909177
:100D80000C05A0910D05B0910E0530910F0501964F
:100D9000A11DB11D232F2D5F2D3720F02D5701965A
:100DA000A11DB11D20930F0580930B0590930C0599
:100DB000A0930D05B0930E0580910705909108054D
:100DC000A0910905B0910A050196A11DB11D80935E
:100DD000070590930805A0930905B0930A05BF91F4
:100DE000AF919F918F913F912F910F900FBE0F90D8
:100DF0001F901895789484B5826084BD84B5816015
:100E000084BD85B5826085BD85B5816085BDEEE612
:100E1000F0E0808181608083E1E8F0E010828081F1
:100E200082608083808181608083E0E8F0E080815F
:100E300081608083E1EBF0E0808184608083E0EB7F
:100E4000F0E0808181608083EAE7F0E08081846067
:100E500080838081826080838081816080838081C3
:100E6000806880831092C1000895482F50E0CA0125
:100E700086569F4FFC0124914A575F4FFA01849197
:100E80008823C1F0E82FF0E0EE0FFF1FE859FF4F75
:100E9000A591B491662341F49FB7F8948C91209565
:100EA00082238C939FBF08959FB7F8948C91822BD7
:100EB0008C939FBF08955058BB27AA270ED075C1A9
:100EC00066D130F06BD120F031F49F3F11F41EF465
:100ED0005BC10EF4E095E7FB51C1E92F77D180F3B8
:100EE000BA17620773078407950718F071F49EF527
:100EF0008FC10EF4E0950B2EBA2FA02D0B01B90176
:100F000090010C01CA01A0011124FF27591B99F07F
:100F1000593F50F4503E68F11A16F040A22F232F8B
:100F2000342F4427585FF3CF469537952795A795DB
:100F3000F0405395C9F77EF41F16BA0B620B730B82
:100F4000840BBAF09150A1F0FF0FBB1F661F771FF3
:100F5000881FC2F70EC0BA0F621F731F841F48F4A8
:100F6000879577956795B795F7959E3F08F0B3CF2E
:100F70009395880F08F09927EE0F97958795089518
:100F8000D9D008F481E008950CD00FC107D140F00A
:100F9000FED030F021F45F3F19F0F0C0511139C19B
:100FA000F3C014D198F39923C9F35523B1F3951BDA
:100FB000550BBB27AA2762177307840738F09F5F7A
:100FC0005F4F220F331F441FAA1FA9F333D00E2EE9
:100FD0003AF0E0E830D091505040E695001CCAF756
:100FE00029D0FE2F27D0660F771F881FBB1F26171B
:100FF00037074807AB07B0E809F0BB0B802DBF01EE
:10100000FF2793585F4F2AF09E3F510568F0B6C006
:1010100000C15F3FECF3983EDCF3869577956795CA
:10102000B795F7959F5FC9F7880F911D969587959E
:1010300097F90895E1E0660F771F881FBB1F6217BD
:1010400073078407BA0720F0621B730B840BBA0B7B
:10105000EE1F88F7E095089504D06894B111D9C0C7
:101060000895BCD088F09F5790F0B92F9927B751B9
:10107000A0F0D1F0660F771F881F991F1AF0BA955C
:10108000C9F712C0B13081F0C3D0B1E00895C0C03B
:10109000672F782F8827B85F39F0B93FCCF3869552
:1010A00077956795B395D9F73EF4909580957095AF
:1010B00061957F4F8F4F9F4F0895E89409C097FB2C
:1010C0003EF490958095709561957F4F8F4F9F4F1F
:1010D0009923A9F0F92F96E9BB279395F695879563
:1010E00077956795B795F111F8CFFAF4BB0F11F426
:1010F00060FF1BC06F5F7F4F8F4F9F4F16C08823CD
:1011000011F096E911C0772321F09EE8872F762F02
:1011100005C0662371F096E8862F70E060E02AF043
:101120009A95660F771F881FDAF7880F969587952F
:1011300097F90895990F0008550FAA0BE0E8FEEF04
:1011400016161706E807F907C0F012161306E4078B
:10115000F50798F0621B730B840B950B39F40A2684
:1011600061F0232B242B252B21F408950A2609F462
:10117000A140A6958FEF811D811D089597F99F6766
:1011800080E870E060E008959FEF80EC089500240F
:101190000A941616170618060906089500240A94DC
:1011A00012161306140605060895092E0394000C62
:1011B00011F4882352F0BB0F40F4BF2B11F460FFF1
:1011C00004C06F5F7F4F8F4F9F4F089557FD90581A
:1011D000440F551F59F05F3F71F04795880F97FBFB
:1011E000991F61F09F3F79F08795089512161306B5
:1011F0001406551FF2CF4695F1DF08C016161706E4
:101200001806991FF1CF8695710561050894089518
:10121000E894BB2766277727CB0197F908950BD071
:10122000C4CFB5DF28F0BADF18F0952309F0A6CFB8
:10123000ABCF1124EECFCADFA0F3959FD1F3950F6A
:1012400050E0551F629FF001729FBB27F00DB11D4A
:10125000639FAA27F00DB11DAA1F649F6627B00DDA
:10126000A11D661F829F2227B00DA11D621F739FC3
:10127000B00DA11D621F839FA00D611D221F749FD1
:101280003327A00D611D231F849F600D211D822F18
:10129000762F6A2F11249F5750408AF0E1F088235F
:1012A0004AF0EE0FFF1FBB1F661F771F881F91506C
:1012B0005040A9F79E3F510570F060CFAACF5F3F25
:1012C000ECF3983EDCF3869577956795B795F7959F
:1012D000E7959F5FC1F7FE2B880F911D9695879527
:1012E00097F90895A1E21A2EAA1BBB1BFD010DC0A0
:1012F000AA1FBB1FEE1FFF1FA217B307E407F507C6
:1013000020F0A21BB30BE40BF50B661F771F881FA1
:10131000991F1A9469F760957095809590959B0137
:10132000AC01BD01CF010895EE0FFF1F0590F491B0
:10133000E02D0994A0E0B0E0E0EAF9E00C94A00C04
:10134000EC015B016115710519F0FB01918380834C
:10135000F9908F2D90E00E94470C892BC9F7FDE290
:10136000FF1621F4F990EE24E39405C02BE2F21667
:1013700009F4F990EE248E0101501040C80162EC8E
:1013800070E043E050E00E944F0C892B01F58E0184
:101390000E5F1F4FC80165EC70E045E050E00E9411
:1013A0004F0C892B19F48E01095F1F4FA114B10452
:1013B00019F0F50111830083E0FC04C070E090E0B7
:1013C00080E814C070E090E080E86FEF08C1C801C9
:1013D0006AEC70E043E050E00E944F0C892B69F406
:1013E000A114B10429F470E090E080EC6FE7F7C03D
:1013F0002296F501D183C083F6CF8824992440E05A
:1014000050E060E070E0EF2DE053EA30A0F5F2E04C
:10141000EF2A8E2D90E09C0128703070E2FE06C00D
:10142000232B79F50894811C911C2BC0232B19F0D8
:10143000089481089108DB01CA0112E0880F991F06
:10144000AA1FBB1F1A95D1F7480F591F6A1F7B1F90
:10145000440F551F661F771F4E0F511D611D711DD3
:10146000483929E9520729E9620729E1720748F05A
:1014700084E0E82A06C0EE3F31F4E3FC39C098E08E
:10148000E92AF990C0CFE53311F0E53189F52991CA
:101490002D3219F4E0E1EE2A05C02B3219F081E07B
:1014A00090E003C0299182E090E0E22FE053EA301F
:1014B00018F0C81BD90B1CC020E030E0FCE020383D
:1014C0003F075CF4C901880F991F880F991F280FE7
:1014D000391F220F331F2E0F311DE991E053EA30DF
:1014E00068F3E4FE03C0309521953F4F820E931EB2
:1014F000CE2CDD24E1FE07C0A114B10421F0219718
:10150000F501D183C083CB01BA010E945D087B0144
:101510008C01F3E0CF22DD2423E0C216D10421F4B4
:1015200017FB109517F9109557016801C801B7010D
:1015300020E030E040E050E00E94C007882309F43A
:101540004AC097FE0DC021EEE22E20E0F22E9094CC
:10155000819491089394C0E2D0E000E010E012C0C2
:1015600099EFE92E90E0F92EF6CFF701259135910C
:1015700045915491C601B5010E940F095B016C01B0
:101580008C1A9D0A8C169D0684F7D595C7950F5F1A
:101590001F4F0630110529F08CEF9FEFE80EF91E62
:1015A000F1CFC501D6017C018D018C2D880F8D2DC9
:1015B000881F8F3F51F0C601B50120E030E040E0C8
:1015C00050E00E94C007882331F482E290E09093BB
:1015D0001105809310057E2D9F2D802F612F272FC1
:1015E000392F482F562FB901CA01CDB7DEB7ECE02D
:1015F0000C94BC0C2F923F925F926F927F928F92CD
:101600009F92AF92BF92CF92DF92EF92FF920F9391
:101610001F93CF93DF938C011B01EA0161157105C4
:1016200019F0FB0191838083209749F0CE01029746
:10163000839728F020E030E040E050E0F6C0F80169
:10164000A1908F018A2D90E00E94470C892BB9F759
:10165000FDE2AF1631F4F801A1908F0155245394A7
:1016600007C0FBE2AF1619F4F801A1908F015524D1
:10167000209719F0C031D105C1F4F0E3AF1679F429
:10168000F8018081883711F0883549F4F801A1808C
:101690000E5F1F4FF2E05F2AC0E1D0E006C0209746
:1016A00021F480E3A816E9F427C0C830D10531F150
:1016B000C930D10524F4C230D10531F50CC0CA308F
:1016C000D10589F0C031D105F9F4C12CD12CE12C20
:1016D000B8E0FB2E28C0C12CD12CE12CA0E4FA2EBE
:1016E00022C0CAE0D0E0FCECCF2EFCECDF2EFCECFC
:1016F000EF2EFCE0FF2E17C0C8E0D0E0C12CD12CAB
:10170000E12CE0E1FE2E0FC09E01442737FD4095FD
:10171000542F60E070E080E090E80E947209C901F7
:10172000DA016C017D0120E030E040E050E060E053
:101730003E01882477FC8094982C70EDB72EBA0C6B
:10174000E9E0EB1570F48A2D81548A3118F499EC94
:10175000B92E06C08A2D81568A3150F589EAB82EF5
:10176000BA0C8B2D90E08C179D0714F56F3FE1F0BC
:10177000C216D306E406F506B0F0CA01B901A40109
:1017800093010E947B0C9B01AC012B0D311D411D6F
:10179000511D2130F0E03F07F0E04F07F0E85F0710
:1017A00010F461E001C06FEFF801A1908F01C5CF87
:1017B0002114310481F0662331F001501040F10111
:1017C0001183008308C051FE1AC002501040F1017D
:1017D0001183008314C067FF12C050FC05C02FEFB7
:1017E0003FEF4FEF5FE704C020E030E040E050E81B
:1017F00082E290E0909311058093100516C050FE90
:1018000008C050954095309521953F4F4F4F5F4F01
:101810000CC057FF0AC082E290E0909311058093BC
:1018200010052FEF3FEF4FEF5FE7B901CA01DF91DE
:10183000CF911F910F91FF90EF90DF90CF90BF90CD
:10184000AF909F908F907F906F905F903F902F9080
:101850000895FC0188279927E89421912032E9F323
:10186000293010F02E30C8F32B3241F02D3239F4EC
:10187000689404C00E94700C820F911D2191205326
:101880002A30C0F31EF4909581959F4F08959111D1
:101890002FC0803219F089508550D0F70895FB0190
:1018A000DC014150504088F08D9181341CF08B3523
:1018B0000CF4805E659161341CF06B350CF4605E55
:1018C000861B611171F3990B0895881BFCCFFB01F6
:1018D000DC018D91019080190110D9F3990B0895C5
:1018E0007AE0979F902D879F802D910D1124089568
:1018F000992788270895629FD001739FF001829FE6
:10190000E00DF11D649FE00DF11D929FF00D839F8E
:10191000F00D749FF00D659FF00D9927729FB00D2B
:10192000E11DF91F639FB00DE11DF91FBD01CF013E
:10193000112408952F923F924F925F926F927F925F
:101940008F929F92AF92BF92CF92DF92EF92FF92CF
:101950000F931F93CF93DF93CDB7DEB7CA1BDB0B7B
:101960000FB6F894DEBF0FBECDBF09942A88398820
:1019700048885F846E847D848C849B84AA84B98427
:10198000C884DF80EE80FD800C811B81AA81B98133
:10199000CE0FD11D0FB6F894DEBF0FBECDBFED0147
:0619A0000895F894FFCF4A
:1019A6004750474C4C0057494D5756004E4D454100
:1019B6002044657465637465640056616C69643FB0
:1019C6002E2E2E00537472696E6720002000546814
:1019D600652064656772656573206C6174746974EB
:1019E600756465206172652000546865206D696EB6
:1019F60075746573206C61747469747564652061AF
:101A060072652000526561647920616E6420617799
:101A1600616974696E6720696E707574002E0000C6
:101A26000000006004AD04C5040504300416045427
:021A36000400AA
:00000001FF
