:100000000C9422010C944E010C944E010C944E0160
:100010000C944E010C944E010C944E010C944E0124
:100020000C944E010C944E010C944E010C944E0114
:100030000C944E010C944E010C944E010C944E0104
:100040000C944E010C944E010C944E010C944E01F4
:100050000C944E010C944E010C944E010C941C0A0D
:100060000C944E010C9490050C944E010C944E018E
:100070000C944E010C944E010C944E010C944E01C4
:100080000C944E010C944E010C944E010C944E01B4
:100090000C94C5050C944E010C944E010C944E0129
:1000A0000C944E010C944E010C944E010C944E0194
:1000B0000C944E010C944E010C944E010C944E0184
:1000C0000C944E010C944E010C944E010C94FA05C4
:1000D0000C944E010C944E010C942F060C944E017E
:1000E0000C944E0100002100240027002A002D005E
:1000F0003000330001010000040107010A01000083
:100100002200250028002B002E00310034000201BF
:100110000000050108010B0100002000230026005B
:1001200029002C002F00320000010000030106010D
:10013000090105050505070508080808020202026D
:100140000A0A080804040404010101010101010173
:100150000303030303030303040707070C0C0C0C3E
:100160000C0C0C0C02020202060606060606060627
:100170000B0B0B0B0B0B0B0B0102102020080810B4
:100180002040102040800201020108040201010207
:1001900004081020408080402010080402018004E0
:1001A000020180402010080402010804020101023B
:1001B0000408102040800102040810204080000044
:1001C000090A02080B0C0D070603040100000000D9
:1001D000000000000000000000000000000000001F
:1001E00000000000000000000000100F0E000000E2
:1001F00000000000000000000000000000000000FF
:1002000000000000494E46494E4954594E414ECDDA
:10021000CCCC3D0AD7233C17B7D13877CC2B3295BD
:1002200095E6241FB14F0A000020410000C842009B
:10023000401C4620BCBE4CCA1B0E5AAEC59D740065
:1002400059052B0711241FBECFEFD1E2DEBFCDBF72
:1002500000E00CBF13E0A0E0B2E0EAE2F0E200E070
:100260000BBF02C007900D92AA39B107D9F718E069
:10027000AAE9B3E001C01D92A53EB107E1F712E083
:10028000C4E4D2E004C02297FE010E94270DC034CE
:10029000D107C9F70E9489050C9413100C94000033
:1002A000CF92DF92EF92FF920F931F93CF93DF9342
:1002B000EC01F62EE72E862F972F60E072E00E9469
:1002C0004309BE016E5F7F4F8F2D9E2D0E94430913
:1002D0008F2D9E2D6DE272E00E943208CE010E94A9
:1002E0005305BC018F2D9E2D4AE050E00E944E091F
:1002F000CE010E94030500E010E09EEBC92E92E0C3
:10030000D92ECC0EDD1E25C08F2D9E2D67E372E009
:100310000E9432088F2D9E2DB8014AE050E00E94C5
:1003200019098F2D9E2D6FE372E00E943208B801EB
:1003300084E0660F771F8A95E1F7601B710B6A599D
:100340007F4F6C0F7D1F8F2D9E2D0E9443090F5FE5
:100350001F4FF6018081918108171907ACF2CE0179
:10036000CA59DF4FBE010E942B048F2D9E2D61E4E0
:1003700072E00E943208C45ADD4F688179818F2D66
:100380009E2D4AE050E00E944E098F2D9E2D6CE577
:1003900072E00E9432087A916A918F2D9E2D4AE078
:1003A00050E00E944E098F2D9E2D67E772E00E945B
:1003B000320824968F2D9E2D688140E050E00E94E7
:1003C00069098F2D9E2D6FE872E00E9432082396F6
:1003D000688179818F2D9E2D4AE050E00E944E0960
:1003E0008F2D9E2D6AEA72E00E9432087A916A91FE
:1003F0008F2D9E2D4AE050E00E944E098F2D9E2D9C
:1004000065EC72E00E94320824968F2D9E2D688143
:1004100040E050E00E9469098F2D9E2D6DED72E045
:100420000E943208279649915991699179918F2DAF
:100430009E2D22E030E00E94110A8F2D9E2D6CEE41
:1004400072E00E9432088F2D9E2D688140E050E0BE
:100450000E9469098F2D9E2D61E073E00E94320891
:10046000299749915991699179918F2D9E2D22E07B
:1004700030E00E94110A8F2D9E2D6FE073E00E94E4
:1004800032088F2D9E2D688140E050E00E9469095E
:100490008F2D9E2D6DE273E00E9432082C964991BB
:1004A0005991699179918F2D9E2D22E030E00E9423
:1004B000110A8F2D9E2D60E473E00E9432088F2D6B
:1004C0009E2D688140E050E00E9469098F2D9E2D8D
:1004D00067E473E00E9432082997488159816A8154
:1004E0007B81C65DD2408F2D9E2D22E030E00E94A0
:1004F000110A8F2D9E2D60E473E00E943208FE01E8
:10050000E652FD4F8F2D9E2D608140E050E00E940D
:100510006909CE010E94090581E090E0DF91CF9149
:100520001F910F91FF90EF90DF90CF900895EF9281
:10053000FF920F931F93CF93DF93EC017B01CE517A
:10054000DD4F79836883C25ED2408E0100521D4F19
:1005500015C0F801A081B181ED91FC911197008443
:10056000F185E02DCD011995682FCE010E94600420
:10057000892B21F0CE01B7010E945001D801ED91E5
:10058000FC91A081B18116962D913C911797CF01D6
:10059000F9011995892BE9F681E090E0DF91CF917F
:1005A0001F910F91FF90EF900895CF93DF93EC018F
:1005B000C351DF4F8881CD5ED0408E3419F420E0E6
:1005C00030E02DC0CE018B589F4F60E070E00E945C
:1005D0002B0DCA52DD4F688379838A839B83C65D66
:1005E000D240FE01E652FD4FCC57DF4F8881C45800
:1005F000D0408083CE018F549F4F60E070E00E9416
:100600002B0DC552DD4F688379838A839B83CB5141
:10061000D2408881C15EDD4F888321E030E0C9018E
:10062000DF91CF9108950F931F93CF93DF93EC0148
:100630008C010F541F4FF8018081863519F420E09A
:1006400030E031C0CE018B589F4F60E070E00E94D7
:100650002B0DC553DD4F688379838A839B83CB5CE5
:10066000D240FE01E153FD4FCC57DF4F8881C45883
:10067000D0408083CE018D569F4F60E070E00E9495
:100680002B0DC053DD4F688379838A839B83CE52C1
:10069000D2408881CE5CDD4F88832196F80180812D
:1006A000888321E030E0C901DF91CF911F910F9144
:1006B0000895AF92BF92CF92DF92EF92FF920F9385
:1006C0001F93DF93CF93CDB7DEB766970FB6F8943D
:1006D000DEBF0FBECDBF7C0120EC30E0E20EF31E8A
:1006E000D7018C91E0E4FFEFEE0EFF1E863519F482
:1006F00020E030E09EC0D701AB58BF4F93E0A92E59
:10070000B12CAC0EBD1EF50180E090E004C020834A
:100710000196118231962D912E32C9F7DC01AA582B
:10072000BF4FAE0DBF1D8DE0C82ED12CCC0EDD1EEF
:10073000F60103C08083118231968D918823D1F711
:10074000CE0103968E010F5F1F4FB8014AE050E0C3
:100750000E94990E22EC32E0E20EF31ED7016D9357
:100760007C93CE010D96B8014AE050E00E94990EAC
:10077000F701729362937F0120E43DEFE20EF31ED6
:10078000F701ED56FF4F80E090E008C0D5012C93B3
:10079000019611961C920894A11CB11C21912E3235
:1007A000A9F7FC01EC56FF4FEE0DFF1D07C0D60167
:1007B0008C9311961C920894C11CD11C81918823A2
:1007C000B1F7CE0103968E010F5F1F4FB8014AE0CB
:1007D00050E00E94990EE7ECF2E0EE0EFF1ED7010A
:1007E0006D937C93CE010D96B8014AE050E00E94D3
:1007F000990EF701729362937F012BE33DEFE20EB6
:10080000F31EF701EC53FD4F84E890E0E80EF91E6B
:10081000D7018C918083EEE1F0E0EE0EFF1ED70150
:100820008C91E7E2F2E0EE0EFF1ED7018C9321E0FF
:1008300030E0C90166960FB6F894DEBF0FBECDBF9B
:10084000CF91DF911F910F91FF90EF90DF90CF90AC
:10085000BF90AF9008950F931F93CF93DF938C01B8
:10086000EB01CB016BE573E00E94E80F009721F4E8
:10087000C8010E94590315C0CE0161E673E00E94D1
:10088000E80F009721F4C8010E9413030AC0CE01AB
:1008900067E673E00E94E80F009719F4C8010E9410
:1008A000D50281E090E0DF91CF911F910F910895E3
:1008B000FC0111821082E254FD4F118210820895D2
:1008C000DC01ED91FC9111971E161F0614F06432A5
:1008D00051F4EA0FFB1F62838D919C911197019651
:1008E00011969C938E938D919C91119784309105D4
:1008F0005CF0FD01E80FF91F829131968A3221F4F4
:10090000128221E030E002C020E030E0C901089509
:10091000CF92DF92EF92FF920F931F93DF93CF93CB
:10092000CDB7DEB72F970FB6F894DEBF0FBECDBFA1
:100930007C0140E050E0870102541D4F6E01089495
:10094000C11CD11C02C06F5F7F4FFB0181818C32C3
:10095000E1F08A32C1F519C0F80180819181FC0172
:10096000A4E0EE0FFF1FAA95E1F7E81BF90BEE0DCF
:10097000FF1DE20FF31FEA59FF4FD601A20FB31F6D
:100980008C9180832F5F3F4F02C020E030E024171E
:10099000350714F3F80180819181FC0124E0EE0F0A
:1009A000FF1F2A95E1F7E81BF90BEE0DFF1DE40F81
:1009B000F51FEA59FF4F10820196F8019183808359
:1009C00040E050E00AC0F601E40FF51F80834F5F5E
:1009D0005F4FF601E40FF51F1082FB0181818A321F
:1009E00009F0B1CF81E090E02F960FB6F894DEBF0A
:1009F0000FBECDBFCF91DF911F910F91FF90EF9070
:100A0000DF90CF900895BC016E5F7F4F0E948804F5
:100A10000895FC01E254FD4F11821082EE5BF2401A
:100A2000118210820895EF92FF920F931F93DF932C
:100A3000CF9300D00F92CDB7DEB78C01FC01EE242E
:100A4000FF2405C0992787FD9095E826F926838124
:100A500031968A32B9F7D801ED91FC91E00FF11F80
:100A60008081898381818A83CE010196BE016D5F79
:100A70007F4F40E150E00E94990EF80111821082F0
:100A800020E030E0E616F70611F421E030E0C9017D
:100A90000F900F900F900F90CF91DF911F910F91BA
:100AA000FF90EF900895BC016E5F7F4F0E94130589
:100AB00008958AE993E00E94580408958AE993E032
:100AC0006EE878E00E94970208950F931F938DE0DF
:100AD00061E00E94C60A0EE818E0C80140E05BE44D
:100AE00060E070E00E946406C8016DE673E00E9459
:100AF000430907EC18E0C80140EC52E160E070E007
:100B00000E94640610937B0600937A061F910F9152
:100B100008950E94640A0E9465050E945E05FDCF4B
:100B20001F920F920FB60F920BB60F9211242F93B4
:100B30003F934F938F939F93EF93FF934091C60002
:100B4000E091FE06F091FF0631969F012F773070FD
:100B5000319780910007909101072817390739F0E4
:100B6000E258F94F40833093FF062093FE06FF9131
:100B7000EF919F918F914F913F912F910F900BBECD
:100B80000F900FBE0F901F9018951F920F920FB6E7
:100B90000F920BB60F9211242F933F934F938F9385
:100BA0009F93EF93FF934091CE00E0918207F091E5
:100BB000830731969F012F7730703197809184079A
:100BC000909185072817390739F0EE5FF84F408379
:100BD0003093830720938207FF91EF919F918F912C
:100BE0004F913F912F910F900BBE0F900FBE0F9022
:100BF0001F9018951F920F920FB60F920BB60F927F
:100C000011242F933F934F938F939F93EF93FF93D1
:100C10004091D600E0910608F091070831969F01B7
:100C20002F77307031978091080890910908281724
:100C3000390739F0EA57F84F40833093070820937B
:100C40000608FF91EF919F918F914F913F912F91C6
:100C50000F900BBE0F900FBE0F901F9018951F9214
:100C60000F920FB60F920BB60F9211242F933F9352
:100C70004F938F939F93EF93FF9340913601E091B1
:100C80008A08F0918B0831969F012F773070319749
:100C900080918C0890918D082817390739F0E65F0C
:100CA000F74F408330938B0820938A08FF91EF9190
:100CB0009F918F914F913F912F910F900BBE0F906D
:100CC0000FBE0F901F901895CF93DF93EC019A0100
:100CD000AB01E885F985203081EE380780E04807D0
:100CE00080E0580709F445C081E090E00A8802C01E
:100CF000880F991F0A94E2F7808360E079E08DE322
:100D000090E00E94030D21503040404050405695E5
:100D1000479537952795EC81FD813083EE81FF81E2
:100D20002083EA85FB85208141E050E0CA010E84E2
:100D300002C0880F991F0A94E2F7282B2083EA85C6
:100D4000FB852081CA010F8402C0880F991F0A9475
:100D5000E2F7282B2083EA85FB858081088802C082
:100D6000440F551F0A94E2F7842B8083DF91CF91C3
:100D70000895108220E130E0CECFDC011296ED9193
:100D8000FC911397E058FF4F21913191808191811F
:100D9000281B390B2F773070C9010895DC0112969A
:100DA000ED91FC911397EE57FF4F20813181929185
:100DB0008291E058F0408217930719F42FEF3FEF2C
:100DC00005C0E20FF31F8081282F30E0C90108958C
:100DD000DC011296ED91FC911397DF01AE57BF4FE6
:100DE0002D913C911197E058FF4F80819181E058FF
:100DF000F0408217930719F42FEF3FEF0BC0E20F7B
:100E0000F31F80812F5F3F4F2F7730702D933C93DE
:100E1000282F30E0C9010895DC011296ED91FC9174
:100E20001397EE57FF4F808191819293829308959B
:100E3000FC01A085B18521898C9190E0022E02C031
:100E4000959587950A94E2F780FFF6CF0484F5859F
:100E5000E02D608308952CE833E030938F082093D1
:100E60008E088EE796E0909391088093900885EC29
:100E700090E0909393088093920884EC90E0909394
:100E800095088093940880EC90E090939708809365
:100E9000960881EC90E0909399088093980886ECEE
:100EA00090E090939B0880939A08E4E0E0939C087C
:100EB00073E070939D0867E060939E0855E050933F
:100EC0009F0841E04093A0083093A2082093A10816
:100ED00082E097E09093A4088093A3088DEC90E0C3
:100EE0009093A6088093A5088CEC90E09093A808B6
:100EF0008093A70888EC90E09093AA088093A908B3
:100F000089EC90E09093AC088093AB088EEC90E075
:100F10009093AE088093AD08E093AF087093B0084B
:100F20006093B1085093B2084093B3083093B5086A
:100F30002093B40886E897E09093B7088093B608AA
:100F400085ED90E09093B9088093B80884ED90E027
:100F50009093BB088093BA0880ED90E09093BD0811
:100F60008093BC0881ED90E09093BF088093BE0809
:100F700086ED90E09093C1088093C008E093C2088A
:100F80007093C3086093C4085093C5084093C60883
:100F90003093C8082093C7088AE098E09093CA0865
:100FA0008093C90885E391E09093CC088093CB08A7
:100FB00084E391E09093CE088093CD0880E391E0A4
:100FC0009093D0088093CF0881E391E09093D2086A
:100FD0008093D10886E391E09093D4088093D3085E
:100FE000E093D5087093D6086093D7085093D8083B
:100FF0004093D90808950F931F93CF93DF938C01EB
:10100000EB0109C02196D801ED91FC910190F0818E
:10101000E02DC801199568816623A1F7DF91CF9172
:101020001F910F910895EF92FF920F931F93CF930B
:10103000DF938C017B01EA010CC0D7016D917D012A
:10104000D801ED91FC910190F081E02DC801199536
:101050002197209791F7DF91CF911F910F91FF90EA
:10106000EF900895DC01ED91FC910280F381E02D79
:10107000199508952F923F924F925F926F927F92AF
:101080008F929F92AF92BF92CF92DF92EF92FF9298
:101090000F931F93DF93CF93CDB7DEB7A0970FB613
:1010A000F894DEBF0FBECDBF1C016A017B01411564
:1010B00051056105710549F440E350E060E070E0DE
:1010C00020E030E00E94E30856C0882499245401AF
:1010D000422E55246624772401E010E00C0F1D1FDA
:1010E000080D191DC701B601A30192010E94030D4D
:1010F000F80160830894811C911CA11CB11CC701DC
:10110000B601A30192010E94030DC901DA016C012D
:101110007D01C114D104E104F104F1F681E0E82E6F
:10112000F12CEC0EFD1EE80CF91C3E010894611C2C
:10113000711CD501C4010197A109B1096C01C8183E
:10114000D90816C0F601EE0DFF1D40814A3010F49B
:10115000405D01C0495C552747FD5095652F752FAF
:10116000C10120E030E00E94E3080894E108F108A2
:101170006E147F0439F7A0960FB6F894DEBF0FBE49
:10118000CDBFCF91DF911F910F91FF90EF90DF9036
:10119000CF90BF90AF909F908F907F906F905F9017
:1011A0004F903F902F900895DC012115310541F4B7
:1011B000ED91FC910190F081E02D642F1995089537
:1011C0000E943A080895EF92FF920F931F93CF93D6
:1011D000DF93EC017A018B012115310541F4E8819F
:1011E000F9810190F081E02D642F19951BC02A3000
:1011F0003105B1F477FF10C04DE250E060E070E0DF
:1012000020E030E00E94E30810950095F094E0940F
:10121000E11CF11C011D111DCE01B801A7012AE03E
:101220000E943A08DF91CF911F910F91FF90EF90AC
:101230000895EF92FF920F931F937B019A0100276D
:10124000F7FC0095102FB801A7010E94E3081F9139
:101250000F91FF90EF9008950F931F938C014DE035
:1012600050E060E070E020E030E00E94E308C80158
:101270004AE050E060E070E020E030E00E94E308E7
:101280001F910F9108950F931F938C010E943208B4
:10129000C8010E942C091F910F910895CF92DF92EF
:1012A000EF92FF920F931F938C016B019A01EE2432
:1012B000D7FCE094FE2CB701A6010E94E308C80108
:1012C0000E942C091F910F91FF90EF90DF90CF901B
:1012D0000895CF92DF92EF92FF920F931F938C01AC
:1012E000C62E9A01DD24C7FCD094ED2CFD2CB7014D
:1012F000A6010E94E308C8010E942C091F910F91CA
:10130000FF90EF90DF90CF9008959F92AF92BF92A1
:10131000CF92DF92EF92FF920F931F93CF93DF93C1
:10132000EC017A018B01922ECB01BA0120E030E072
:1013300040E050E00E94510B88236CF4CE014DE256
:1013400050E060E070E020E030E00E94E30817FB2E
:10135000109517F9109520E030E040E05FE3AA24F3
:101360000BC0CA01B90120E030E040E251E40E9424
:10137000550B9B01AC01A394A91498F3C801B701C4
:101380000E94ED0A5B016C010E94C20B7B018C0183
:10139000CE01B801A7012AE030E00E94D4089920CC
:1013A00029F0CE0166E873E00E943208C801B70157
:1013B0000E94EE0B9B01AC01C601B5010E94EC0A34
:1013C00022C020E030E040E251E40E94A00C7B010A
:1013D0008C010E94BD0B5B016C01CC24B7FCC09456
:1013E000DC2CCE01B601A5012AE030E00E94E30822
:1013F000C601B5010E94F00B9B01AC01C801B70109
:101400000E94EC0A9A949920E1F6DF91CF911F9106
:101410000F91FF90EF90DF90CF90BF90AF909F9093
:1014200008950F931F938C010E948509C8010E94A3
:101430002C091F910F9108951F920F920FB60F92D2
:1014400011242F933F938F939F93AF93BF938091DA
:10145000DE089091DF08A091E008B091E10830919A
:10146000E2080196A11DB11D232F2D5F2D3720F01D
:101470002D570196A11DB11D2093E2088093DE082F
:101480009093DF08A093E008B093E1088091DA0818
:101490009091DB08A091DC08B091DD080196A11DB8
:1014A000B11D8093DA089093DB08A093DC08B09319
:1014B000DD08BF91AF919F918F913F912F910F9038
:1014C0000FBE0F901F901895789484B5826084BDEC
:1014D00084B5816084BD85B5826085BD85B5816038
:1014E00085BDEEE6F0E0808181608083E1E8F0E098
:1014F0001082808182608083808181608083E0E8C7
:10150000F0E0808181608083E1EBF0E080818460A5
:101510008083E0EBF0E0808181608083E1E9F0E0AE
:10152000808182608083808181608083E0E9F0E057
:10153000808181608083E1EAF0E080818260808345
:10154000808181608083E0EAF0E080818160808337
:10155000E1E2F1E08081826080838081816080832C
:10156000E0E2F1E0808181608083EAE7F0E0808161
:1015700084608083808182608083808181608083B9
:101580008081806880831092C1000895482F50E0C8
:10159000CA0188589E4FFC0124914E5C5E4FFA01AF
:1015A00084918823C1F0E82FF0E0EE0FFF1FEC518B
:1015B000FF4FA591B491662341F49FB7F8948C91A5
:1015C000209582238C939FBF08959FB7F8948C91A8
:1015D000822B8C939FBF08955058BB27AA270ED00B
:1015E00075C166D130F06BD120F031F49F3F11F41A
:1015F0001EF45BC10EF4E095E7FB51C1E92F77D1F2
:1016000080F3BA17620773078407950718F071F41F
:101610009EF58FC10EF4E0950B2EBA2FA02D0B0175
:10162000B90190010C01CA01A0011124FF27591B27
:1016300099F0593F50F4503E68F11A16F040A22F2D
:10164000232F342F4427585FF3CF4695379527959E
:10165000A795F0405395C9F77EF41F16BA0B620B9D
:10166000730B840BBAF09150A1F0FF0FBB1F661FE4
:10167000771F881FC2F70EC0BA0F621F731F841F27
:1016800048F4879577956795B795F7959E3F08F04D
:10169000B3CF9395880F08F09927EE0F979587950C
:1016A0000895D9D008F481E008950CD00FC107D176
:1016B00040F0FED030F021F45F3F19F0F0C051113E
:1016C00039C1F3C014D198F39923C9F35523B1F369
:1016D000951B550BBB27AA2762177307840738F0A1
:1016E0009F5F5F4F220F331F441FAA1FA9F333D000
:1016F0000E2E3AF0E0E830D091505040E695001CB4
:10170000CAF729D0FE2F27D0660F771F881FBB1F6F
:10171000261737074807AB07B0E809F0BB0B802D49
:10172000BF01FF2793585F4F2AF09E3F510568F095
:10173000B6C000C15F3FECF3983EDCF38695779529
:101740006795B795F7959F5FC9F7880F911D969597
:10175000879597F90895E1E0660F771F881FBB1FF3
:10176000621773078407BA0720F0621B730B840BA0
:10177000BA0BEE1F88F7E095089504D06894B11174
:10178000D9C00895BCD088F09F5790F0B92F992701
:10179000B751A0F0D1F0660F771F881F991F1AF07C
:1017A000BA95C9F712C0B13081F0C3D0B1E0089545
:1017B000C0C0672F782F8827B85F39F0B93FCCF3C6
:1017C000869577956795B395D9F73EF49095809572
:1017D000709561957F4F8F4F9F4F0895E89409C092
:1017E00097FB3EF490958095709561957F4F8F4F54
:1017F0009F4F9923A9F0F92F96E9BB279395F6956A
:10180000879577956795B795F111F8CFFAF4BB0FE7
:1018100011F460FF1BC06F5F7F4F8F4F9F4F16C04B
:10182000882311F096E911C0772321F09EE8872FD5
:10183000762F05C0662371F096E8862F70E060E091
:101840002AF09A95660F771F881FDAF7880F96950A
:10185000879597F90895990F0008550FAA0BE0E8AE
:10186000FEEF16161706E807F907C0F01216130662
:10187000E407F50798F0621B730B840B950B39F4A2
:101880000A2661F0232B242B252B21F408950A2608
:1018900009F4A140A6958FEF811D811D089597F948
:1018A0009F6780E870E060E008959FEF80EC089506
:1018B00000240A941616170618060906089500242F
:1018C0000A9412161306140605060895092E0394A9
:1018D000000C11F4882352F0BB0F40F4BF2B11F41D
:1018E00060FF04C06F5F7F4F8F4F9F4F089557FD7C
:1018F0009058440F551F59F05F3F71F04795880F7E
:1019000097FB991F61F09F3F79F087950895121614
:1019100013061406551FF2CF4695F1DF08C01616C0
:1019200017061806991FF1CF869571056105089471
:101930000895E894BB2766277727CB0197F9089588
:101940000BD0C4CFB5DF28F0BADF18F0952309F02B
:10195000A6CFABCF1124EECFCADFA0F3959FD1F372
:10196000950F50E0551F629FF001729FBB27F00D4D
:10197000B11D639FAA27F00DB11DAA1F649F6627A2
:10198000B00DA11D661F829F2227B00DA11D621FF1
:10199000739FB00DA11D621F839FA00D611D221FAB
:1019A000749F3327A00D611D231F849F600D211D8F
:1019B000822F762F6A2F11249F5750408AF0E1F032
:1019C00088234AF0EE0FFF1FBB1F661F771F881F7B
:1019D00091505040A9F79E3F510570F060CFAACFBB
:1019E0005F3FECF3983EDCF3869577956795B79566
:1019F000F795E7959F5FC1F7FE2B880F911D969590
:101A0000879597F90895A1E21A2EAA1BBB1BFD0129
:101A10000DC0AA1FBB1FEE1FFF1FA217B307E407CD
:101A2000F50720F0A21BB30BE40BF50B661F771F25
:101A3000881F991F1A9469F7609570958095909505
:101A40009B01AC01BD01CF010895EE0FFF1F059072
:101A5000F491E02D19948F929F92AF92BF92CF9202
:101A6000DF92EF92FF920F931F93CF93DF93EC01DE
:101A70005B016115710519F0FB0191838083F99079
:101A80008F2D90E00E94C80F892BC9F7FDE2FF1649
:101A900021F4F990EE24E39405C02BE2F21609F448
:101AA000F990EE248E0101501040C80164E072E00C
:101AB00043E050E00E94D00F892B01F58E010E5FAC
:101AC0001F4FC80167E072E045E050E00E94D00F70
:101AD000892B19F48E01095F1F4FA114B10419F06D
:101AE000F50111830083E0FC04C070E090E080E821
:101AF00014C070E090E080E86FEF08C1C8016CE0AE
:101B000072E043E050E00E94D00F892B69F4A114E9
:101B1000B10429F470E090E080EC6FE7F7C0229602
:101B2000F501D183C083F6CF8824992440E050E0AA
:101B300060E070E0EF2DE053EA30A0F5F2E0EF2A2C
:101B40008E2D90E09C0128703070E2FE06C0232BA1
:101B500079F50894811C911C2BC0232B19F0089453
:101B600081089108DB01CA0112E0880F991FAA1FA2
:101B7000BB1F1A95D1F7480F591F6A1F7B1F440FCF
:101B8000551F661F771F4E0F511D611D711D48396E
:101B900029E9520729E9620729E1720748F084E040
:101BA000E82A06C0EE3F31F4E3FC39C098E0E92AA8
:101BB000F990C0CFE53311F0E53189F529912D3247
:101BC00019F4E0E1EE2A05C02B3219F081E090E033
:101BD00003C0299182E090E0E22FE053EA3018F050
:101BE000C81BD90B1CC020E030E0FCE020383F07C8
:101BF0005CF4C901880F991F880F991F280F391F9E
:101C0000220F331F2E0F311DE991E053EA3068F3A4
:101C1000E4FE03C0309521953F4F820E931ECE2CDB
:101C2000DD24E1FE07C0A114B10421F02197F501E4
:101C3000D183C083CB01BA010E94EE0B7B018C01E2
:101C4000F3E0CF22DD2423E0C216D10421F417FBF8
:101C5000109517F9109557016801C801B70120E0E8
:101C600030E040E050E00E94510B882309F44AC064
:101C700097FE0DC023E2E22E22E0F22E9094819492
:101C800091089394C0E2D0E000E010E012C09BE322
:101C9000E92E92E0F92EF6CFF70125913591459185
:101CA0005491C601B5010E94A00C5B016C018C1A15
:101CB0009D0A8C169D0684F7D595C7950F5F1F4F1B
:101CC0000630110529F08CEF9FEFE80EF91EF1CFD9
:101CD000C501D6017C018D018C2D880F8D2D881FAB
:101CE0008F3F51F0C601B50120E030E040E050E008
:101CF0000E94510B882331F482E290E09093E40833
:101D00008093E3087E2D9F2D802F612F272F392F61
:101D1000482F562FB901CA01DF91CF911F910F9122
:101D2000FF90EF90DF90CF90BF90AF909F908F90FB
:101D300008952F923F925F926F927F928F929F921F
:101D4000AF92BF92CF92DF92EF92FF920F931F93C9
:101D5000CF93DF938C011B01EA016115710519F026
:101D6000FB0191838083209749F0CE0102978397EE
:101D700028F020E030E040E050E0F6C0F801A1900B
:101D80008F018A2D90E00E94C80F892BB9F7FDE2E0
:101D9000AF1631F4F801A1908F015524539407C078
:101DA000FBE2AF1619F4F801A1908F01552420979A
:101DB00019F0C031D105C1F4F0E3AF1679F4F801A0
:101DC0008081883711F0883549F4F801A1800E5FD1
:101DD0001F4FF2E05F2AC0E1D0E006C0209721F457
:101DE00080E3A816E9F427C0C830D10531F1C93025
:101DF000D10524F4C230D10531F50CC0CA30D1056B
:101E000089F0C031D105F9F4C12CD12CE12CB8E016
:101E1000FB2E28C0C12CD12CE12CA0E4FA2E22C02C
:101E2000CAE0D0E0FCECCF2EFCECDF2EFCECEF2E79
:101E3000FCE0FF2E17C0C8E0D0E0C12CD12CE12C73
:101E4000E0E1FE2E0FC09E01442737FD4095542F40
:101E500060E070E080E090E80E94030DC901DA01C3
:101E60006C017D0120E030E040E050E060E03E01A8
:101E7000882477FC8094982C70EDB72EBA0CE9E09A
:101E8000EB1570F48A2D81548A3118F499ECB92E2F
:101E900006C08A2D81568A3150F589EAB82EBA0CCF
:101EA0008B2D90E08C179D0714F56F3FE1F0C21663
:101EB000D306E406F506B0F0CA01B901A401930106
:101EC0000E94F40F9B01AC012B0D311D411D511DD2
:101ED0002130F0E03F07F0E04F07F0E85F0710F433
:101EE00061E001C06FEFF801A1908F01C5CF21140F
:101EF000310481F0662331F001501040F10111836B
:101F0000008308C051FE1AC002501040F101118335
:101F1000008314C067FF12C050FC05C02FEF3FEFD5
:101F20004FEF5FE704C020E030E040E050E882E29D
:101F300090E09093E4088093E30816C050FE08C038
:101F400050954095309521953F4F4F4F5F4F0CC0B6
:101F500057FF0AC082E290E09093E4088093E30880
:101F60002FEF3FEF4FEF5FE7B901CA01DF91CF914C
:101F70001F910F91FF90EF90DF90CF90BF90AF90A7
:101F80009F908F907F906F905F903F902F900895DB
:101F9000911127C0803219F089508550D0F70895EB
:101FA000FB01DC014150504088F08D9181341CF0E0
:101FB0008B350CF4805E659161341CF06B350CF44C
:101FC000605E861B611171F3990B0895881BFCCF2D
:101FD000FB01DC018D91019080190110D9F3990B5F
:101FE0000895992788270895629FD001739FF00173
:101FF000829FE00DF11D649FE00DF11D929FF00D99
:10200000839FF00D749FF00D659FF00D9927729FCF
:10201000B00DE11DF91F639FB00DE11DF91FBD015A
:0A202000CF0111240895F894FFCFBA
:10202A004E4D4541204465746563746564004750AC
:10203A00532D4C61742025692025692025632020B1
:10204A004C6F6E2025692025692025630056616C36
:10205A0069643F2E2E2E00537472696E6720002029
:10206A0000546865206D696E75746573206C6174BF
:10207A00746974756465206172652000546865200E
:10208A0064656772656573206C61747469747564DC
:10209A00652061726520004C6174746974756465A9
:1020AA0020446972656374696F6E206973200054F5
:1020BA006865206D696E75746573206C6F6E6769EB
:1020CA0074756465206172652000546865206465D2
:1020DA006772656573206C6F6E67697475646520D5
:1020EA0061726520006C6F6E67697475646520445F
:1020FA006972656374696F6E206973200057696E2F
:10210A00642053706565642069732000556E697494
:10211A007320666F72207468652073706565642029
:10212A000054686520616E676C65206973200054ED
:10213A006865207265666572656E636520666F7292
:10214A00207468617420616E676C65200053706545
:10215A006564206F7665722067726F756E64200001
:10216A00556E6974732000436F75727365206F76BC
:10217A0065722067726F756E6420004750474C4C39
:10218A000057494D5756004750565447005265610B
:10219A00647920616E64206177616974696E672071
:1021AA00696E707574002E00000000001807FB07A6
:0A21BA001308BD06E806CE060C0768
:00000001FF
