:100000000C9463000C948B000C948B000C948B006C
:100010000C948B000C948B000C948B000C948B0034
:100020000C948B000C948B000C948B000C94DC01D2
:100030000C948B000C948B000C948B000C948B0014
:100040000C94A0050C948B000C94E1020C948B0092
:100050000C948B000C948B000C948B000C948B00F4
:100060000C948B000C948B000000000024002700EF
:100070002A0000000000250028002B0000000000DE
:1000800023002600290004040404040404040202DA
:100090000202020203030303030301020408102007
:1000A0004080010204081020010204081020000012
:1000B0000007000201000003040600000000000029
:1000C00000009902D90311241FBECFEFD8E0DEBF94
:1000D000CDBF11E0A0E0B1E0E4E8FEE002C0059091
:1000E0000D92A232B107D9F711E0A2E2B1E001C04E
:1000F0001D92AB3EB107E1F710E0C6ECD0E004C0C2
:100100002297FE010E943C07C23CD107C9F70E941A
:10011000DA020C9440070C940000FC01809122014B
:100120008C3090F480838F5F80932201815090E027
:10013000FC01EE0FFF1FE80FF91FED5DFE4F88EB8E
:100140009BE09283818308958FEF80830895FC0163
:1001500020812C3008F041C08181992787FD90953E
:1001600048E850E0481B590B440F551F440F551FDA
:100170006417750784F08281992787FD909548E57B
:1001800052E0481B590B440F551F440F551F64176D
:1001900075070CF4AB0142505040CA01AA2797FDE5
:1001A000A095BA2F74E0880F991FAA1FBB1F7A95DC
:1001B000D1F763E0B695A795979587956A95D1F79E
:1001C0004FB7F89430E0F901EE0FFF1FE20FF31F75
:1001D000ED5DFE4F928381834FBF0895AF92BF9232
:1001E000CF92DF92EF92FF920F931F93CF93DF9303
:1001F000EC019B0182E0603278070CF048C077FF89
:1002000003C020E030E005C0653B710514F024EB2D
:1002100030E000D000D0B901882777FD8095982F75
:100220002981332727FD3095B8E8AB2EB12CA21ACF
:10023000B30AAA0CBB1CAA0CBB1CCC24B7FCC094F0
:10024000DC2CEA81FF27E7FDF09528E532E02E1B44
:100250003F0B220F331F220F331F442737FD4095DA
:10026000542FEDB7FEB7218332834383548320E0BC
:1002700030E040E050E0E4EBEE2EF12C012D112DAA
:100280000E9457059B010F900F900F900F90CE0189
:10029000B9010E94A700DF91CF911F910F91FF90AC
:1002A000EF90DF90CF90BF90AF900895CF92DF9204
:1002B000EF92FF921F93CF93DF93EC01162F7A01F9
:1002C000690188818C3008F064C0862F61E00E944B
:1002D0002306888190E0FC01EE0FFF1FE80FF91F55
:1002E000ED5DFE4F1F738081807C812B808380E2D7
:1002F00092E08E199F0964E070E00E94D60669833F
:1003000080E699E08C199D0964E070E00E94D606B1
:100310006A83A8818A2F6CE00E94CA06682F70E069
:10032000AB01440F551F460F571F440F551F440F75
:10033000551F20E030E0C901840F951FFC01EE0F2E
:10034000FF1FE80FF91FED5DFE4F808186FD15C090
:100350002F5F3F4F2C30310571F724C01092800081
:1003600082E0809381001092850010928400B19AFF
:1003700080916F00826080936F008A2F90E0FC0173
:10038000EE0FFF1FE80FF91FED5DFE4F80818064C7
:1003900080838881DF91CF911F91FF90EF90DF9054
:1003A000CF900895672BD1F2E8CF40E252E020E6EB
:1003B00039E00E94560108951F920F920FB60F92D6
:1003C00011242F933F934F935F936F937F938F935A
:1003D0009F93AF93BF93EF93FF938091470187FF64
:1003E00005C010928500109284002BC02091470117
:1003F000332727FD30958091220190E02817390797
:1004000004F580914701992787FD9095FC01EE0F37
:10041000FF1FE80FF91FED5DFE4F808186FF11C0C1
:1004200080914701992787FD9095FC01EE0FFF1FF2
:10043000E80FF91FED5DFE4F80818F7360E00E9431
:100440007606809147018F5F809347012091470195
:10045000332727FD30958091220190E02817390736
:100460000CF04EC0809147018C300CF049C02091B7
:1004700084003091850080914701992787FD9095F0
:10048000FC01EE0FFF1FE80FF91FED5DFE4F8181AC
:100490009281280F391F3093890020938800809122
:1004A0004701992787FD9095FC01EE0FFF1FE80F8C
:1004B000F91FED5DFE4F808186FF2AC080914701C4
:1004C000992787FD9095FC01EE0FFF1FE80FF91F9C
:1004D000ED5DFE4F80818F7361E00E94760618C04B
:1004E00080E49CE905C08091840090918500049689
:1004F00090938900809388008FEF8093470108C014
:10050000809184009091850084549C4948F3EBCFFE
:10051000FF91EF91BF91AF919F918F917F916F91DB
:100520005F914F913F912F910F900FBE0F901F90B1
:10053000189588E491E00E948D0008958FEC91E079
:100540000E946B03892BC1F08FEC91E060E071E0B9
:100550000E944C050BC08FEC91E00E949603BC01F9
:100560008FEC91E040E050E00E9422058FEC91E09A
:100570000E946B03892B79F708950F931F938DE0E9
:1005800061E00E9423068FEC91E040E855E260E0D4
:1005900070E00E94120308E411E0C8016DE070E011
:1005A0000E94D501C8016AE570E00E94EE001F912B
:1005B0000F9108950E94E8050E94BD020E949E02CC
:1005C000FDCF1F920F920FB60F9211242F933F93DE
:1005D0004F938F939F93EF93FF934091C600E091C9
:1005E000CB01F091CC0131969F012F77307031977C
:1005F0008091CD019091CE012817390739F0E55B44
:10060000FE4F40833093CC012093CB01FF91EF91BB
:100610009F918F914F913F912F910F900FBE0F900F
:100620001F901895CF93DF93EC019A01AB01E885F9
:10063000F985203081EE380780E0480780E05807D0
:1006400009F445C081E090E00A8802C0880F991F34
:100650000A94E2F7808360E079E08DE390E00E9405
:10066000E906215030404040504056954795379517
:100670002795EC81FD813083EE81FF812083EA851F
:10068000FB85208141E050E0CA010E8402C0880F42
:10069000991F0A94E2F7282B2083EA85FB852081A5
:1006A000CA010F8402C0880F991F0A94E2F7282B11
:1006B0002083EA85FB858081088802C0440F551F8E
:1006C0000A94E2F7842B8083DF91CF910895108202
:1006D00020E130E0CECFDC011296ED91FC91139732
:1006E000E058FF4F2191319180819181281B390B76
:1006F0002F773070C9010895DC011296ED91FC91BD
:100700001397EE57FF4F2081318192918291E058EB
:10071000F0408217930719F42FEF3FEF05C0E20F67
:10072000F31F8081282F30E0C9010895DC01129663
:10073000ED91FC911397DF01AE57BF4F2D913C9186
:100740001197E058FF4F80819181E058F040821767
:10075000930719F42FEF3FEF0BC0E20FF31F8081D7
:100760002F5F3F4F2F7730702D933C93282F30E031
:10077000C9010895DC011296ED91FC911397EE5793
:10078000FF4F80819181929382930895FC01A0850F
:10079000B18521898C9190E0022E02C095958795B4
:1007A0000A94E2F780FFF6CF0484F585E02D60839C
:1007B000089583E191E09093D0018093CF018BE481
:1007C00091E09093D2018093D10185EC90E09093D9
:1007D000D4018093D30184EC90E09093D601809370
:1007E000D50180EC90E09093D8018093D70181EC03
:1007F00090E09093DA018093D90186EC90E0909399
:10080000DC018093DB0184E08093DD0183E0809351
:10081000DE0187E08093DF0185E08093E00181E0E5
:100820008093E10108950F931F93CF93DF938C0181
:10083000EB0109C02196D801ED91FC910190F08166
:10084000E02DC801099568816623A1F7DF91CF915A
:100850001F910F910895EF92FF920F931F93CF93E3
:10086000DF938C017B01EA010CC0D7016D917D0102
:10087000D801ED91FC910190F081E02DC80109951E
:100880002197209791F7DF91CF911F910F91FF90C2
:10089000EF900895DC01ED91FC910280F381E02D51
:1008A000099508952F923F924F925F926F927F9297
:1008B0008F929F92AF92BF92CF92DF92EF92FF9270
:1008C0000F931F93DF93CF93CDB7DEB7A0970FB6EB
:1008D000F894DEBF0FBECDBF1C016A017B0141153C
:1008E00051056105710549F440E350E060E070E0B6
:1008F00020E030E00E94EC0456C088249924540182
:10090000422E55246624772401E010E00C0F1D1FB1
:10091000080D191DC701B601A30192010E94E90645
:10092000F80160830894811C911CA11CB11CC701B3
:10093000B601A30192010E94E906C901DA016C0126
:100940007D01C114D104E104F104F1F681E0E82E47
:10095000F12CEC0EFD1EE80CF91C3E010894611C04
:10096000711CD501C4010197A109B1096C01C81816
:10097000D90816C0F601EE0DFF1D40814A3010F473
:10098000405D01C0495C552747FD5095652F752F87
:10099000C10120E030E00E94EC040894E108F10875
:1009A0006E147F0439F7A0960FB6F894DEBF0FBE21
:1009B000CDBFCF91DF911F910F91FF90EF90DF900E
:1009C000CF90BF90AF909F908F907F906F905F90EF
:1009D0004F903F902F900895EF92FF920F931F93A7
:1009E000CF93DF93EC017A018B012115310541F49E
:1009F000E881F9810190F081E02D642F09951BC0F9
:100A00002A303105B1F477FF10C04DE250E060E0CC
:100A100070E020E030E00E94EC0410950095F09426
:100A2000E094E11CF11C011D111DCE01B801A701CC
:100A30002AE00E945204DF91CF911F910F91FF9005
:100A4000EF900895EF92FF920F931F937B019A010D
:100A50000027F7FC0095102FB801A7010E94EC04B5
:100A60001F910F91FF90EF9008950F931F938C01AA
:100A70004DE050E060E070E020E030E00E94EC04E7
:100A8000C8014AE050E060E070E020E030E00E9401
:100A9000EC041F910F9108950F931F938C010E94F6
:100AA0004A04C8010E9435051F910F9108952F92A5
:100AB0003F924F925F926F927F928F929F92AF92EE
:100AC000BF92CF92DF92EF92FF920F931F93DF932B
:100AD000CF93CDB7DEB73B014C0119012A016D89D7
:100AE0007E898F89988D6A197B098C099D09621A04
:100AF000730A840A950AA40193010E94AB06E218C6
:100B0000F30804091509A80197010E940B072A0D93
:100B10003B1D4C1D5D1DB901CA01CF91DF911F9195
:100B20000F91FF90EF90DF90CF90BF90AF909F908C
:100B30008F907F906F905F904F903F902F9008958F
:100B40001F920F920FB60F9211242F933F938F9302
:100B50009F93AF93BF938091E6019091E701A0919D
:100B6000E801B091E9013091EA010196A11DB11DA2
:100B7000232F2D5F2D3720F02D570196A11DB11D7C
:100B80002093EA018093E6019093E701A093E801A6
:100B9000B093E9018091E2019091E301A091E40119
:100BA000B091E5010196A11DB11D8093E2019093E2
:100BB000E301A093E401B093E501BF91AF919F9150
:100BC0008F913F912F910F900FBE0F901F9018950E
:100BD000789484B5826084BD84B5816084BD85B518
:100BE000826085BD85B5816085BDEEE6F0E08081DF
:100BF00081608083E1E8F0E0108280818260808300
:100C0000808181608083E0E8F0E080818160808382
:100C1000E1EBF0E0808184608083E0EBF0E08081B4
:100C200081608083EAE7F0E0808184608083808156
:100C300082608083808181608083808180688083FE
:100C40001092C1000895482F50E0CA0186569F4F68
:100C5000FC0124914A575F4FFA0184918823C1F027
:100C6000E82FF0E0EE0FFF1FE859FF4FA591B49178
:100C7000662341F49FB7F8948C91209582238C933E
:100C80009FBF08959FB7F8948C91822B8C939FBF40
:100C90000895833071F0843028F48130A1F08230DF
:100CA00021F514C08630B1F08730D1F08430E9F4FA
:100CB00004C0809180008F7703C0809180008F7D79
:100CC00080938000089584B58F7702C084B58F7DAE
:100CD00084BD08958091B0008F778093B00008950F
:100CE0008091B0008F7D8093B0000895FF920F93A4
:100CF0001F93F62E482F50E0CA0182559F4FFC01EA
:100D00002491CA0186569F4FFC0114914A575F4FA8
:100D1000FA0104910023D9F0222319F0822F0E94B6
:100D20004906E02FF0E0EE0FFF1FEE58FF4FA591B0
:100D3000B491FF2031F49FB7F8948C9110958123E2
:100D400004C09FB7F8948C91812B8C939FBF1F9107
:100D50000F91FF900895629FD001739FF001829FD1
:100D6000E00DF11D649FE00DF11D929FF00D839F3A
:100D7000F00D749FF00D659FF00D9927729FB00DD7
:100D8000E11DF91F639FB00DE11DF91FBD01CF01EA
:100D900011240895991B79E004C0991F961708F053
:100DA000961B881F7A95C9F78095089597FB092EA1
:100DB00007260AD077FD04D049D006D000201AF4C7
:100DC000709561957F4F0895F6F7909581959F4FA7
:100DD0000895A1E21A2EAA1BBB1BFD010DC0AA1F7C
:100DE000BB1FEE1FFF1FA217B307E407F50720F094
:100DF000A21BB30BE40BF50B661F771F881F991F0F
:100E00001A9469F760957095809590959B01AC0157
:100E1000BD01CF01089597FB092E05260ED057FD81
:100E200004D0D7DF0AD0001C38F450954095309597
:100E300021953F4F4F4F5F4F0895F6F7909580955E
:100E4000709561957F4F8F4F9F4F0895AA1BBB1BD5
:100E500051E107C0AA1FBB1FA617B70710F0A61BBA
:100E6000B70B881F991F5A95A9F780959095BC01DB
:100E7000CD010895EE0FFF1F0590F491E02D099428
:040E8000F894FFCF14
:100E840049206865617220796F752073617900006B
:100E9400000000C60313042B046B0396037C03BAFF
:020EA400030049
:00000001FF
