:100000000C9403010C942F010C942F010C942F01DC
:100010000C942F010C942F010C942F010C942F01A0
:100020000C942F010C942F010C942F010C942F0190
:100030000C942F010C942F010C942F010C942F0180
:100040000C942F010C942F010C942F010C942F0170
:100050000C942F010C942F010C942F010C94E404A8
:100060000C942F010C945F010C942F010C942F0120
:100070000C942F010C942F010C942F010C942F0140
:100080000C942F010C942F010C942F010C942F0130
:100090000C9494010C942F010C942F010C942F01BB
:1000A0000C942F010C942F010C942F010C942F0110
:1000B0000C942F010C942F010C942F010C942F0100
:1000C0000C942F010C942F010C942F010C94C90156
:1000D0000C942F010C942F010C94FE010C942F0111
:1000E0000C942F0100002100240027002A002D007D
:1000F0003000330001010000040107010A01000083
:100100002200250028002B002E00310034000201BF
:100110000000050108010B0100002000230026005B
:1001200029002C002F00320000010000030106010D
:10013000090105050505070508080808020202026D
:100140000A0A080804040404010101010101010173
:100150000303030303030303040707070C0C0C0C3E
:100160000C0C0C0C02020202060606060606060627
:100170000B0B0B0B0B0B0B0B0102102020080810B4
:100180002040102040800201020108040201010207
:1001900004081020408080402010080402018004E0
:1001A000020180402010080402010804020101023B
:1001B0000408102040800102040810204080000044
:1001C000090A02080B0C0D070603040100000000D9
:1001D000000000000000000000000000000000001F
:1001E00000000000000000000000100F0E000000E2
:1001F00000000000000000000000000000000000FF
:1002000000000000FA0211241FBECFEFD1E2DEBFD2
:10021000CDBF00E00CBF12E0A0E0B2E0ECEBFBE0F1
:1002200000E00BBF02C007900D92A231B107D9F7D1
:1002300014E0A2E1B2E001C01D92A737B107E1F7D7
:1002400012E0C6E0D2E004C02297FE010E94D80569
:10025000C430D107C9F70E9458010C94DC050C94F6
:1002600000008BE594E00E948C02892B59F08BE50D
:1002700094E00E94B702BC0182E294E040E050E0CA
:100280000E94D10408958DE061E00E948E0582E213
:1002900094E040E05BE460E070E00E9433028BE5B4
:1002A00094E040EC52E160E070E00E943302089577
:1002B0000E942C050E9443010E943101FDCF1F9234
:1002C0000F920FB60F920BB60F9211242F933F93FC
:1002D0004F938F939F93EF93FF934091C600E091CC
:1002E0009202F091930231969F012F7730703197EF
:1002F00080919402909195022817390739F0EE5EAB
:10030000FD4F40833093930220939202FF91EF912F
:100310009F918F914F913F912F910F900BBE0F9016
:100320000FBE0F901F9018951F920F920FB60F924D
:100330000BB60F9211242F933F934F938F939F935C
:10034000EF93FF934091CE00E0911603F0911703D5
:1003500031969F012F7730703197809118039091DB
:1003600019032817390739F0EA56FD4F40833093B7
:10037000170320931603FF91EF919F918F914F9157
:100380003F912F910F900BBE0F900FBE0F901F90BB
:1003900018951F920F920FB60F920BB60F92112461
:1003A0002F933F934F938F939F93EF93FF9340919E
:1003B000D600E0919A03F0919B0331969F012F772D
:1003C0003070319780919C0390919D0328173907D5
:1003D00039F0E65EFC4F408330939B0320939A03F1
:1003E000FF91EF919F918F914F913F912F910F909E
:1003F0000BBE0F900FBE0F901F9018951F920F927B
:100400000FB60F920BB60F9211242F933F934F9379
:100410008F939F93EF93FF9340913601E0911E04D9
:10042000F0911F0431969F012F77307031978091A2
:100430002004909121042817390739F0E256FC4F27
:10044000408330931F0420931E04FF91EF919F91EE
:100450008F914F913F912F910F900BBE0F900FBE38
:100460000F901F901895CF93DF93EC019A01AB0189
:10047000E885F985203081EE380780E0480780E084
:10048000580709F445C081E090E00A8802C0880F4F
:10049000991F0A94E2F7808360E079E08DE390E0B1
:1004A0000E94B40521503040404050405695479539
:1004B00037952795EC81FD813083EE81FF81208384
:1004C000EA85FB85208141E050E0CA010E8402C02C
:1004D000880F991F0A94E2F7282B2083EA85FB8571
:1004E0002081CA010F8402C0880F991F0A94E2F785
:1004F000282B2083EA85FB858081088802C0440F71
:10050000551F0A94E2F7842B8083DF91CF910895E1
:10051000108220E130E0CECFDC011296ED91FC910B
:100520001397E058FF4F2191319180819181281BD1
:10053000390B2F773070C9010895DC011296ED91C7
:10054000FC911397EE57FF4F208131819291829158
:10055000E058F0408217930719F42FEF3FEF05C0E2
:10056000E20FF31F8081282F30E0C9010895DC01DC
:100570001296ED91FC911397DF01AE57BF4F2D916D
:100580003C911197E058FF4F80819181E058F040F5
:100590008217930719F42FEF3FEF0BC0E20FF31F01
:1005A00080812F5F3F4F2F7730702D933C93282F02
:1005B00030E0C9010895DC011296ED91FC9113978A
:1005C000EE57FF4F80819181929382930895FC01B1
:1005D000A085B18521898C9190E0022E02C095956D
:1005E00087950A94E2F780FFF6CF0484F585E02D25
:1005F0006083089524E032E03093230420932204A2
:1006000082E192E0909325048093240485EC90E0AD
:10061000909327048093260484EC90E0909329041F
:100620008093280480EC90E090932B0480932A041C
:1006300081EC90E090932D0480932C0486EC90E064
:1006400090932F0480932E04E4E0E093300473E051
:100650007093310467E06093320455E050933304A3
:1006600041E040933404309336042093350486E906
:1006700092E090933804809337048DEC90E090934F
:100680003A04809339048CEC90E090933C0480937E
:100690003B0488EC90E090933E0480933D0489EC09
:1006A00090E09093400480933F048EEC90E0909310
:1006B000420480934104E0934304709344046093A4
:1006C00045045093460440934704309349042093D3
:1006D00048048AE193E090934B0480934A0485EDAB
:1006E00090E090934D0480934C0484ED90E09093BF
:1006F0004F0480934E0480ED90E0909351048093DA
:10070000500481ED90E0909353048093520486ED61
:1007100090E09093550480935404E09356047093B2
:100720005704609358045093590440935A043093EB
:100730005C0420935B048EE993E090935E048093C5
:100740005D0485E391E09093600480935F0484E30B
:1007500091E0909362048093610480E391E0909330
:1007600064048093630481E391E090936604809332
:10077000650486E391E09093680480936704E093B6
:10078000690470936A0460936B0450936C04409303
:100790006D0408950F931F93CF93DF938C01EB01AA
:1007A00009C02196D801ED91FC910190F081E02DD6
:1007B000C801199568816623A1F7DF91CF911F9138
:1007C0000F910895EF92FF920F931F93CF93DF93B2
:1007D0008C017B01EA010CC0D7016D917D01D8012C
:1007E000ED91FC910190F081E02DC80119952197C0
:1007F000209791F7DF91CF911F910F91FF90EF908C
:1008000008952F923F924F925F926F927F928F92B4
:100810009F92AF92BF92CF92DF92EF92FF920F938F
:100820001F93DF93CF93CDB7DEB7A0970FB6F894A1
:10083000DEBF0FBECDBF1C016A017B014115510512
:100840006105710549F440E350E060E070E020E0AC
:1008500030E00E949B0456C0882499245401422E03
:1008600055246624772401E010E00C0F1D1F080DAD
:10087000191DC701B601A30192010E94B405F80138
:1008800060830894811C911CA11CB11CC701B60196
:10089000A30192010E94B405C901DA016C017D0136
:1008A000C114D104E104F104F1F681E0E82EF12C49
:1008B000EC0EFD1EE80CF91C3E010894611C711C35
:1008C000D501C4010197A109B1096C01C818D90863
:1008D00016C0F601EE0DFF1D40814A3010F4405D58
:1008E00001C0495C552747FD5095652F752FC10103
:1008F00020E030E00E949B040894E108F1086E14A7
:100900007F0439F7A0960FB6F894DEBF0FBECDBFB7
:10091000CF91DF911F910F91FF90EF90DF90CF90DB
:10092000BF90AF909F908F907F906F905F904F900F
:100930003F902F900895EF92FF920F931F93CF93C4
:10094000DF93EC017A018B012115310541F4E88137
:10095000F9810190F081E02D642F19951BC02A3098
:100960003105B1F477FF10C04DE250E060E070E077
:1009700020E030E00E949B0410950095F094E094F4
:10098000E11CF11C011D111DCE01B801A7012AE0D7
:100990000E940104DF91CF911F910F91FF90EF9082
:1009A0000895EF92FF920F931F937B019A01002706
:1009B000F7FC0095102FB801A7010E949B041F911E
:1009C0000F91FF90EF9008951F920F920FB60F9224
:1009D00011242F933F938F939F93AF93BF93809155
:1009E000720490917304A0917404B09175043091D5
:1009F00076040196A11DB11D232F2D5F2D3720F008
:100A00002D570196A11DB11D209376048093720489
:100A100090937304A0937404B093750480916E0452
:100A200090916F04A0917004B09171040196A11D82
:100A3000B11D80936E0490936F04A0937004B093E3
:100A40007104BF91AF919F918F913F912F910F9022
:100A50000FBE0F901F901895789484B5826084BD66
:100A600084B5816084BD85B5826085BD85B58160B2
:100A700085BDEEE6F0E0808181608083E1E8F0E012
:100A80001082808182608083808181608083E0E841
:100A9000F0E0808181608083E1EBF0E08081846020
:100AA0008083E0EBF0E0808181608083E1E9F0E029
:100AB000808182608083808181608083E0E9F0E0D2
:100AC000808181608083E1EAF0E0808182608083C0
:100AD000808181608083E0EAF0E0808181608083B2
:100AE000E1E2F1E0808182608083808181608083A7
:100AF000E0E2F1E0808181608083EAE7F0E08081DC
:100B00008460808380818260808380818160808333
:100B10008081806880831092C1000895482F50E042
:100B2000CA0188589E4FFC0124914E5C5E4FFA0129
:100B300084918823C1F0E82FF0E0EE0FFF1FEC5105
:100B4000FF4FA591B491662341F49FB7F8948C911F
:100B5000209582238C939FBF08959FB7F8948C9122
:100B6000822B8C939FBF0895A1E21A2EAA1BBB1B58
:100B7000FD010DC0AA1FBB1FEE1FFF1FA217B30769
:100B8000E407F50720F0A21BB30BE40BF50B661F7F
:100B9000771F881F991F1A9469F760957095809543
:100BA00090959B01AC01BD01CF010895EE0FFF1F91
:0C0BB0000590F491E02D1994F894FFCF0B
:100BBC0000000000E702CA03E2038C02B7029D02A8
:020BCC00DB024A
:00000001FF
