:100000000C9462000C948A000C948A000C948A0070
:100010000C948A000C948A000C948A000C948A0038
:100020000C948A000C948A000C948A000C948A0028
:100030000C948A000C948A000C948A000C948A0018
:100040000C94FE020C948A000C94B2000C948A006A
:100050000C948A000C948A000C948A000C948A00F8
:100060000C948A000C948A000000000024002700F1
:100070002A0000000000250028002B0000000000DE
:1000800023002600290004040404040404040202DA
:100090000202020203030303030301020408102007
:1000A0004080010204081020010204081020000012
:1000B0000007000201000003040600000000000029
:1000C0000000AA0111241FBECFEFD8E0DEBFCDBFD4
:1000D00011E0A0E0B1E0E2EAF7E002C005900D9285
:1000E000A231B107D9F711E0A2E1B1E001C01D9240
:1000F000A23BB107E1F710E0C4ECD0E004C02297C6
:10010000FE010E94CB03C23CD107C9F70E94AB009D
:100110000C94CF030C94000086E991E00E943C010E
:10012000892B59F086E991E00E946701BC0186E9BC
:1001300091E040E050E00E94EB0208958DE061E024
:100140000E94810386E991E040E05BE460E070E0BA
:100150000E94E30008950E9446030E949E000E94B0
:100160008C00FDCF1F920F920FB60F9211242F9388
:100170003F934F938F939F93EF93FF934091C600CC
:10018000E0919201F091930131969F012F773070A9
:10019000319780919401909195012817390739F092
:1001A000EE5EFE4F40833093930120939201FF91C6
:1001B000EF919F918F914F913F912F910F900FBE93
:1001C0000F901F901895CF93DF93EC019A01AB012C
:1001D000E885F985203081EE380780E0480780E027
:1001E000580709F445C081E090E00A8802C0880FF2
:1001F000991F0A94E2F7808360E079E08DE390E054
:100200000E94A703215030404040504056954795EA
:1002100037952795EC81FD813083EE81FF81208326
:10022000EA85FB85208141E050E0CA010E8402C0CE
:10023000880F991F0A94E2F7282B2083EA85FB8513
:100240002081CA010F8402C0880F991F0A94E2F727
:10025000282B2083EA85FB858081088802C0440F13
:10026000551F0A94E2F7842B8083DF91CF91089584
:10027000108220E130E0CECFDC011296ED91FC91AE
:100280001397E058FF4F2191319180819181281B74
:10029000390B2F773070C9010895DC011296ED916A
:1002A000FC911397EE57FF4F2081318192918291FB
:1002B000E058F0408217930719F42FEF3FEF05C085
:1002C000E20FF31F8081282F30E0C9010895DC017F
:1002D0001296ED91FC911397DF01AE57BF4F2D9110
:1002E0003C911197E058FF4F80819181E058F04098
:1002F0008217930719F42FEF3FEF0BC0E20FF31FA4
:1003000080812F5F3F4F2F7730702D933C93282FA4
:1003100030E0C9010895DC011296ED91FC9113972C
:10032000EE57FF4F80819181929382930895FC0153
:10033000A085B18521898C9190E0022E02C095950F
:1003400087950A94E2F780FFF6CF0484F585E02DC7
:100350006083089584E091E09093970180939601E3
:1003600082E191E0909399018093980185EC90E06F
:1003700090939B0180939A0184EC90E090939D016F
:1003800080939C0180EC90E090939F0180939E016C
:1003900081EC90E09093A1018093A00186EC90E025
:1003A0009093A3018093A20184E08093A40183E051
:1003B0008093A50187E08093A60185E08093A70143
:1003C00081E08093A80108950F931F93CF93DF934B
:1003D0008C01EB0109C02196D801ED91FC910190AF
:1003E000F081E02DC801099568816623A1F7DF91AE
:1003F000CF911F910F910895EF92FF920F931F934A
:10040000CF93DF938C017B01EA010CC0D7016D9182
:100410007D01D801ED91FC910190F081E02DC801A2
:1004200009952197209791F7DF91CF911F910F9117
:10043000FF90EF9008952F923F924F925F926F92AC
:100440007F928F929F92AF92BF92CF92DF92EF9264
:10045000FF920F931F93DF93CF93CDB7DEB7A09793
:100460000FB6F894DEBF0FBECDBF1C016A017B0141
:10047000411551056105710549F440E350E060E024
:1004800070E020E030E00E94B50256C08824992434
:100490005401422E55246624772401E010E00C0F0D
:1004A0001D1F080D191DC701B601A30192010E946D
:1004B000A703F80160830894811C911CA11CB11C46
:1004C000C701B601A30192010E94A703C901DA0185
:1004D0006C017D01C114D104E104F104F1F681E065
:1004E000E82EF12CEC0EFD1EE80CF91C3E010894E0
:1004F000611C711CD501C4010197A109B1096C01EE
:10050000C818D90816C0F601EE0DFF1D40814A300B
:1005100010F4405D01C0495C552747FD5095652F9B
:10052000752FC10120E030E00E94B5020894E10877
:10053000F1086E147F0439F7A0960FB6F894DEBF69
:100540000FBECDBFCF91DF911F910F91FF90EF9024
:10055000DF90CF90BF90AF909F908F907F906F90E3
:100560005F904F903F902F900895EF92FF920F93DE
:100570001F93CF93DF93EC017A018B012115310595
:1005800041F4E881F9810190F081E02D642F099513
:100590001BC02A303105B1F477FF10C04DE250E0A6
:1005A00060E070E020E030E00E94B5021095009518
:1005B000F094E094E11CF11C011D111DCE01B80165
:1005C000A7012AE00E941B02DF91CF911F910F919A
:1005D000FF90EF900895EF92FF920F931F937B018E
:1005E0009A010027F7FC0095102FB801A7010E947F
:1005F000B5021F910F91FF90EF9008951F920F92F7
:100600000FB60F9211242F933F938F939F93AF9325
:10061000BF938091AD019091AE01A091AF01B091D7
:10062000B0013091B1010196A11DB11D232F2D5FA5
:100630002D3720F02D570196A11DB11D2093B1013A
:100640008093AD019093AE01A093AF01B093B00140
:100650008091A9019091AA01A091AB01B091AC0148
:100660000196A11DB11D8093A9019093AA01A093A9
:10067000AB01B093AC01BF91AF919F918F913F912E
:100680002F910F900FBE0F901F901895789484B5FE
:10069000826084BD84B5816084BD85B5826085BD7E
:1006A00085B5816085BDEEE6F0E080818160808364
:1006B000E1E8F0E010828081826080838081816047
:1006C0008083E0E8F0E0808181608083E1EBF0E00E
:1006D000808184608083E0EBF0E0808181608083B2
:1006E000EAE7F0E08081846080838081826080839B
:1006F0008081816080838081806880831092C100C6
:100700000895482F50E0CA0186569F4FFC0124915E
:100710004A575F4FFA0184918823C1F0E82FF0E037
:10072000EE0FFF1FE859FF4FA591B491662341F4E6
:100730009FB7F8948C91209582238C939FBF089546
:100740009FB7F8948C91822B8C939FBF0895A1E260
:100750001A2EAA1BBB1BFD010DC0AA1FBB1FEE1F3B
:10076000FF1FA217B307E407F50720F0A21BB30B86
:10077000E40BF50B661F771F881F991F1A9469F702
:1007800060957095809590959B01AC01BD01CF015E
:100790000895EE0FFF1F0590F491E02D0994F89451
:0207A000FFCF89
:1007A200000000009701E401FC013C0167014D01DA
:0207B2008B01B9
:00000001FF
